:020000040800F2
:10000000300D002001010008095D00089D4E000828
:10001000515700080D100008096900080000000091
:10002000000000000000000000000000FD5F00086C
:1000300075160008000000000D5D0008D96000087A
:100040001B0100081B0100081B0100081B01000820
:100050001B0100081B0100081B0100081B01000810
:100060001B0100081B0100081B01000851160008B5
:100070001B0100081B0100085D1600086916000836
:100080001B0100081B0100081B0100086567000830
:1000900071670008A9110008B51100081B010008CC
:1000A0001B010008416200081B0100081B01000839
:1000B0001B0100081B0100084D6200081B0100081D
:1000C0001B0100081B0100081B0100081B010008A0
:1000D0001B010008CD6600081B0100081B01000879
:1000E0001B0100081B0100081B010008DFF80CD0F1
:1000F00000F036FD004800471D6A0008300D002062
:100100000648804706480047FEE7FEE7FEE7FEE7B1
:10011000FEE7FEE7FEE7FEE7FEE7FEE7DD6000083C
:10012000ED000008D2B201E000F8012B491EFBD21D
:1001300070470022F6E710B513460A4604461946F2
:10014000FFF7F0FF204610BD421C10F8011B0029EC
:10015000FBD1801A704700000FB400B58DB010A914
:1001600009900B9000914FF0FF300A9000200C9006
:1001700005480690054807906A4609A80F9900F0BF
:10018000A9FA0DB05DF814FBF10600080F0700088E
:100190002DE9FF4F087883B09946FF2805D0491C08
:1001A0002D2804D00024002008E000200BE00124CA
:1001B000F9E700EB800003EB4000491C0B78FF2BB4
:1001C000F7D104B1404200230293147819461D462A
:1001D0002D2C01D02B2C04D1521C2D2C13D00024FB
:1001E0000294AA461478FF2C0FD00A25A3FB0578A9
:1001F00001FB05814FF0000C03FB0C11521CE319AD
:100200004AEB0101EEE70124EAE7814453EA0100E9
:1002100002D019F5C87F06DA03980021C0E9001161
:1002200007B0BDE8F08F0025AE4E2F46DFF8B8824C
:10023000184600F03CFCCDE90001B9F1000002DAFB
:10024000C9F1000400E004460023A74A1AEB030B9F
:1002500042EB045A12E0E00707D02A4633463846FC
:10026000414600F043FB074688462A46334610467F
:10027000194600F03BFB05460E466410002CEAD1FF
:10028000DDE90001B9F1000F5A46534606DA00F0E5
:100290009FFB3A46434600F09BFB05E000F026FB3F
:1002A0003A46434600F022FB029A0AB181F000412F
:1002B000039AC2E90001B3E72DE9FF4F1F468DB055
:1002C000D7E901464FF0FF382E2045464FF0000990
:1002D0000B90B9696D1C0E988847396A8246884729
:1002E0000028F6D1BAF1FF3F0AD024F4D064002EE2
:1002F00011DDBAF12B0F08D0BAF12D0F0BD102E0AE
:10030000404611B08DE744F48064B9696D1C0E98C5
:1003100088478246761E6946600501D52D2000E09B
:100320002B208DF8000001F1010B0DF1200809E0F0
:10033000B9696D1C0E98884782460F9844F4007482
:10034000761E0560002E02DDBAF1300FF0D00B9959
:100350008A453ED144F0800406E00F99681CA9F15B
:10036000010944F400740860B9696D1C761E0E988A
:10037000884782463028F0D02BE00B998A4505D17A
:10038000200603D444F08004761E18E0504606F0A0
:1003900087FD08B30DF11302761EAAF1300044F474
:1003A0000074934506D20BF8010B200607D5A9F17E
:1003B000010003E0200602D409F101008146A005F6
:1003C00002D50F99681C0860B9696D1C0E988847A2
:1003D0008246002ED1DC53E0002E51DDBAF1650FCC
:1003E00002D0BAF1450F4BD1A00549D5B9696D1CB2
:1003F00024F44074761E0E9888478246002E0CDD49
:100400002B2804D0BAF12D0F07D144F48074B969B8
:100410006D1C0E9888478246761EE00501D52D2179
:1004200000E02B2108F8011BCDF82C8021E00DF114
:100430002901761E44F4007488450CD2AAF13000DC
:1004400010F0FF0088F8000002D10B99884509D907
:1004500008F1010806E0E00501D5244801E042F278
:100460000F708146B9696D1C0E98884782460F98B7
:100470000560002E04DD504606F012FD0028D6D19E
:10048000F9690E988847FF208BF8000088F8000073
:100490000020069007904B466A4608A906A8FFF779
:1004A00077FEA00502D46FF001002AE714F0240FB4
:1004B0000AD0E00714D1DDE906123868031D3B605D
:1004C0000068C0E900120BE0DDE9060100F02CFB3A
:1004D0000146E00704D13868021D3A6000680160F7
:1004E00028460EE7000014400000F03FF1D8FFFF5F
:1004F00080EA010210B502F00043400022D04A0019
:100500001FD0010E01EB1261C0F35600C2F3560278
:1005100040F4000042F40002A0FB022000047F39F6
:10052000140400D0401C50EA124001D44000491E7F
:10053000C2B20C0604EBD010401C4008802A02D046
:1005400003E0002010BD20F00100002900DA0020A7
:10055000184310BD30B480EA010202F0004530F0CB
:10056000004221F0004013D090B1C30DD40DC2F36E
:100570001601C0F31600E41A41F4000140F4000231
:100580007D34914201D3641C00E04900002C02DA62
:1005900030BC002070474FF400000023914201D38B
:1005A000891A034340084FEA4101F7D151B1914202
:1005B00002D14FF0004105E002D24FF0010101E00D
:1005C0006FF0010103EBC450284430BC00F0B0B818
:1005D000C10F80EAE0700844CA079623002100F0AA
:1005E000B0B800F0004220F00040C10DC0F316008A
:1005F00040F400007F2901DA00207047962903DCCF
:10060000C1F19601C84001E096398840002AF4D033
:100610004042704700F0004230F000400AD0C10D67
:1006200001F56071C0F3160042EA0151C2084007AB
:100630001143704700200146704730B50B46014614
:1006400000202022012409E021FA02F59D4205D371
:1006500003FA02F5491B04FA02F52844151EA2F11B
:100660000102F1DC30BD2DE9F05F05460020924625
:100670009B4688460646814640241BE02846414664
:100680004746224600F093FA53465A46C01A914113
:1006900010D311461846224600F07AFA2D1A67EB5D
:1006A00001084F4622460120002100F071FA17EBA5
:1006B00000094E41201EA4F10104DFDC484631460A
:1006C0002A464346BDE8F09F026811441378016052
:1006D00018467047D16004495161044911620021F4
:1006E0001161114600F08ABAC9060008F30B000830
:1006F000426842B1016811F8013B23B1521EC0E9C2
:100700000012184670470121C160881E7047426878
:100710005AB1C368016843B983688B4205D0491E4A
:10072000521CC0E90012002070474FF0FF307047A4
:100730000029A8BF7047401C490008BF20F00100F5
:10074000704710B4B0FA80FC00FA0CF050EA0104D3
:1007500004BF10BC704749B1CCF1200421FA04F465
:1007600011FA0CF118BF012121430843A3EB0C013E
:10077000CB1D4FEA00614FEA102042BF002010BCA1
:10078000704700EBC35010440029A4BF10BC704751
:10079000401C490008BF20F0010010BC70472DE943
:1007A000FE4F804681EA0300C00F0C46009021F006
:1007B000004123F00045B8EB0200A94105D24046B4
:1007C000214690461C460B46024623F0004010434B
:1007D00047D0270DC7F30A00C3F30A510290401A0D
:1007E000019040286BDAC3F3130040F4801B00989B
:1007F000924620B10023D2EB030A63EB0B0B019866
:100800005946C0F14002504600F0C2F906460D4676
:1008100050465946019A00F0DAF910EB08006141A0
:10082000002487EA115284EAE7731A4340D0009A01
:1008300062B3019A012A4FEA075215DC001B61EBF3
:1008400002014FF0004202EA0752CDE90042001CCB
:1008500041F5801132462B4600F075FB03B0BDE830
:10086000F08F40462146F9E7001B61EB0201001CB6
:1008700041F5801300185B412018A2F5001747EBE3
:10088000030140EAD570B6196D4111E06D084FEAD9
:10089000360645EAC0754FEA0752001B61EB0201BC
:1008A000001C41F5801149084FEA30000019514100
:1008B00032462B4603B0BDE8F04F00F035BB009840
:1008C000012240000023D0EB020263EBE0730098AA
:1008D00021464FEAE074B8EB000061EB0401E9E760
:1008E00083F000435BE781F0004158E72DE9FE4FBC
:1008F00081EA030404F0004421F0004100944FF029
:10090000000B23F0004350EA01045ED052EA0304D6
:100910005BD0C3F30A54C1F30A552C44A4F2F33458
:100920000194A0FB0254C1F3130141F48011C3F3FD
:10093000130343F4801301FB024400FB034E840ABB
:10094000970A44EA815447EA8357A4FB0768029553
:100950008D0A05FB07854FEA932C04FB0C542705F1
:10096000029D4FEA065847EA1637B5EB08056EEBCD
:10097000070C870E920E47EA811742EA8312A7FB03
:100980000201B6EB0B0164EB00042B0D43EA0C33C0
:100990005E1844EB1C50DA465146E7FB0201C5F3F2
:1009A00013044FEA0B3343EA14534FEA0432019C19
:1009B00043EA0603A4F10C040294009CCDE900B4C0
:1009C00000F0C1FA03B0BDE8F08F00200146F9E75E
:1009D0002DE9F04D81EA030404F0004B21F00045BD
:1009E00014464FF0000A23F0004150EA050220D0DF
:1009F00054EA01021DD0C5F30A570246C5F313039A
:100A0000C1F31300C1F30A5640F4801543F4801378
:100A1000A7EB0608101BD64608F2FD3873EB05005D
:100A200002D308F1010801E092185B41B8F1000F10
:100A300003DA00200146BDE8F08D00204FF480115C
:100A4000064684460EE0171B73EB050705D3121B01
:100A500063EB050306434CEA010C49084FEA3000FA
:100A600092185B4150EA0107EDD152EA030012D01F
:100A700082EA040083EA0501084305D0101BAB415C
:100A800006D20122002306E000224FF0004302E0DC
:100A90006FF0010253101AEB06004CEB085110EBFB
:100AA0000A0041EB0B01BDE8F04D00F03DBA0EB578
:100AB00040F2334202920022CDE90022134600F0B8
:100AC00042FA03B000BDC1F30A52C1F3130140F270
:100AD000FF3341F480119A4202DA00200146704748
:100AE00040F233439A42A2F2334202DC524200F017
:100AF0005EB800F04DB8000030B5041E71F100047E
:100B000004DB4FF00044404264EB0101141E73F11A
:100B1000000405DB1C464FF00043524263EB040324
:100B2000994208BF904230BD01F0004330B421F03B
:100B3000004150EA010206D00A0DA2F56072C1F32D
:100B40001301002A02DC30BC00207047440F44EA45
:100B5000C104C100E01830BC00EBC250FFF7E8BD93
:100B60001CB509480090094801900546009C06E024
:100B7000E06840F0010394E8070098471034AC4265
:100B8000F6D3FFF7B7FA0000687F0008887F0008F7
:100B9000202A04DB203A00FA02F10020704791403D
:100BA000C2F1200320FA03F3194390407047202A32
:100BB00004DB203A21FA02F00021704721FA02F307
:100BC000D040C2F120029140084319467047202AC4
:100BD00006DBCB17203A41FA02F043EAE07306E065
:100BE00041FA02F3D040C2F1200291400843194675
:100BF0007047C0B24FF4F05100F0F4B92DE9F34F53
:100C00008BB04FF0000801F10C000C464FF0010BC7
:100C100046460DF1080A019062690121019890474A
:100C2000051E2DD0252D2CD0216A8847C0B16269C0
:100C3000012101989047216A88470028F7D1411E79
:100C400062690198904700E0761CA1690B9888477B
:100C5000216A88470028F7D1E1690B988847DBE7CC
:100C6000A1690B9888470746A84201D1761CD3E7B3
:100C7000E1690B9888477F1C02D1B8F1000F6FD053
:100C800046E1002762693D463946019890472A2887
:100C900004D162690121019890470125DFF884920F
:100CA0006269012101989047A0F130010A290AD216
:100CB0004F45E5DC07EB870100EB4107303FDFD410
:100CC00045F01005ECE7E90601D46FF000476C2809
:100CD0000AD04C2814D0682815D06A280DD0742862
:100CE0001CD07A281AD01DE0626901210198904732
:100CF0006C2802D045F0040514E045F002050DE033
:100D000045F020050AE062690121019890476828B2
:100D100002D045F0080505E045F40065626901214F
:100D200001989047C4E9015765283DD019DC58283F
:100D30007AD00CDC452837D004DC252826D0412881
:100D400031D131E046282FD047282CD12CE05B2828
:100D500077D0612828D063287CD0642823D15AE03A
:100D6000D0E06F2848D008DC66281DD067281BD04B
:100D7000692821D06E2816D127E0702845D0732825
:100D800068D0752847D078280DD14DE0A1690B981F
:100D90008847054625283FF469AFE1690B988847E5
:100DA0006D1C3FF46AAFB3E023466A466FF0010062
:100DB0000B99FFF781FA9EE045F040006060A807BC
:100DC00023464FF0000236D43EE0E8077FF447AFF9
:100DD0002068011D21600068290501D506701BE708
:100DE000290701D5068017E7A90703D5F117C0E940
:100DF000006111E706600FE745F040006060A8075A
:100E000023464FF0080216D41EE040F60E0125EAF4
:100E10000100606016E045F040006060A8072346CE
:100E20004FF00A0207D40FE045F040006060A807C9
:100E300008D5234610226FF001000B99AFF3008014
:100E400059E007E0234610226FF001000B99AFF341
:100E5000008050E04FF000094F464B46632802D017
:100E60005B2806D040E0E80601D40120A0600127FD
:100E70003AE062690121019890475E2805D14FF060
:100E800001096269494601989047216939B90021F1
:100E90000A46534643F82120491C0829FADBB0B31F
:100EA000216969B9C11700EBD16253110AEB8301C3
:100EB00022F01F02821A01200B68904003430B604E
:100EC00062690121019890475D28E8D1B9F1000FCE
:100ED00009D00020514651F82020D24341F820206B
:100EE000401C0828F7DB02AB224600976FF0010098
:100EF0000B99AFF3008000280CDA401C08D1BBF13D
:100F0000000F05D04FF0FF300DB0BDE8F08FFFE7C8
:100F10004046F9E7E90701D108F1010806444FF01E
:100F2000000B79E6CCCCCC0C10B5141E73F1000488
:100F300008DA401C41F1000192185B411A4301D1CB
:100F400020F0010010BD2DE9F04D92469B4611B1F5
:100F5000B1FA81F202E0B0FA80F220329046FFF757
:100F600017FE04460F4640EA0A0041EA0B015346C9
:100F70005A46084313D0114653EA010019D0C8F16C
:100F800040025046FFF713FE05460E4650465946AE
:100F90004246FFF7FDFD084305D0012004E020464E
:100FA0003946BDE8F08D0020054346EAE0762C4343
:100FB00037430A986305E40AA0EB08000022FD0A03
:100FC00044EA47540A3002D500200146E9E701050A
:100FD00010196941DDE9084500196941BDE8F04D86
:100FE000A2E700007F2801D9002208E0064A02EBB0
:100FF0005002C007127800D1120902F00F0201203E
:1010000090400840704700000C760008FEE70000A2
:10101000C11E11F1020F3CBF0020704740F2CC010D
:10102000C2F200010144087900284FF000001CBF03
:101030000871012070470000C11E11F1020F3CBF72
:101040000020704740F2CC01C2F200010144C8798F
:1010500000284FF000001CBFC8710120704700003D
:1010600070B540F60044C4F2010420464FF48051AC
:1010700001F0DCFFB0FA80F040F2CC054009C2F28A
:1010800000052870002620460421AE70EE606E71C7
:101090002E7201F0CBFFB0FA80F040096870EE705C
:1010A0002E61AE716E7270BD012805D002281CBF82
:1010B00000207047042101E04FF4805180B540F6D4
:1010C0000040C4F2010001F0B1FFB0FA80F0400925
:1010D00080BD000070B540F60045C4F2010501F086
:1010E000B1FF044628464FF4805101F09FFF40F2C3
:1010F000CC06C2F20006B0FA80F2317800284FEA3E
:10110000521007D039B1317A0022B270D1B9012121
:1011100017E000BF31B1B178012913D1317A39B16B
:1011200010E000BF0121B1700021F46071713172D3
:10113000F16840F6B832611A914203D3012131724D
:101140000021717130702846042101F06FFF717821
:1011500050B151B1717A0022F27069B1B0FA80F0E9
:101160004009707070BD00BF41B1F1780129F5D11F
:10117000717A49B1F2E700BF01210EE00121F1705F
:1011800000213461B1717172316940F6B832611A6F
:101190009142E3D3012171720021B171B0FA80F064
:1011A0004009707070BD000040F24020C2F20000A3
:1011B00001F0F2B840F24020C2F2000001F0ECB8B9
:1011C000014640F2A410C2F200000129C16205DB11
:1011D000806A00F5807004F0A7BF00BF806A002914
:1011E00018BFA0F5807004F09FBF000070B540F2FA
:1011F000A41CC2F2000CDCF828E0DCF820504FF20E
:101200006003DCF81420A0EB0E04481BCFF6FF733C
:10121000C011B4F5486FC2E9154003DD4FF44864CE
:1012200005E000BF14F5486F02DA03F54874546511
:10123000B0F57A6F02DD4FF47A6302E010F57A6F51
:1012400001DA18469365D56CD2E91116654300FBA7
:101250000655966E6143AC19E51104F07F06C2E9AC
:101260001A65156E936805EBE414B4EB832F4FEA0F
:101270008325D165146602DC6D42AC4201DA2C464E
:101280001566156D05FB00F605FB0010566620443B
:101290008112B3EBA02F116702DB5B42994201DAA6
:1012A000194613677046002918BFA0F58070C8BFA3
:1012B0000EF58070CCF82C10BDE8704004F034BFFF
:1012C000F0B540F2A41CC2F2000CDCF81430DCF8DB
:1012D0002010D3F824E0421AB2F5801FC3E9092E8A
:1012E00002DD4FF4801205E012F5801F03DA0022C0
:1012F000CFF6F0725A62D3E906149D6B1E6B04FBA5
:1013000002559868AF1206EBA5246FF39F25514351
:10131000C3E90E57B4EB802F4FEA8025C3E90B14C5
:1013200002DC6D42AC4201DA2C461D631D6AA2EB61
:101330000E0205FB021105FB02F70A199112B0EB30
:10134000A22F5F63196402DB4042814201DA014649
:1013500018640129CCF82C1008DBDCF8280000F513
:101360008070BDE8F04004F0DFBE00BFDCF828006C
:10137000002918BFA0F58070BDE8F04004F0D4BE8D
:1013800010B540F2281CC2F2000CDCF83030834269
:101390003FD0DCE90A2119DA01EB020E48F6AD3242
:1013A000C6F6DB028EFB02214A1302EBD17144F632
:1013B0002064CA1801FB14E1002BCCE90B121DD4E8
:1013C000824223DACCF8082010BD00BFA1EB020E48
:1013D00048F6AD32C6F6DB028EFB0224621302EB46
:1013E000D47444F6206104FB11E1E218002BCCE92F
:1013F0000B1209DD002AE5DC03E000BFB2F1FF3F7C
:10140000E0DD002002E000BF8242DBDC0021CCF8FE
:101410002C100246CCF83000CCF8082010BD00009B
:1014200040F22810C2F200004168496981627047A9
:1014300040F22811C2F200010022C1E90B207047DE
:1014400080B540F2EC0CC2F2000CBCF81CE0BCF819
:101450001E10A1EB0E030A46B3F5005FC8BFA2F54C
:10146000804213F5005FB8BF01F58042BCF8200050
:101470007244A0EB0E030146B3F5005FC8BFA1F5AF
:10148000804113F5005FB8BF00F58041BCF8220031
:101490001144A0EB0E020346B2F5005FC8BFA3F5EE
:1014A000804312F5005FB8BF00F58043BCF824000C
:1014B0001944A0EB0E020346B2F5005FC8BFA3F5C6
:1014C000804312F5005FB8BF00F58043BCF82600EA
:1014D0001944A0EB0E020346B2F5005FC8BFA3F5A6
:1014E000804312F5005FB8BF00F58043BCF82800C8
:1014F0001944A0EB0E020346B2F5005FC8BFA3F586
:10150000804312F5005FB8BF00F58043BCF82A00A5
:101510001944A0EB0E020346B2F5005FC8BFA3F565
:10152000804312F5005FB8BF00F58043BCF82C0083
:101530001944A0EB0E020346B2F5005FC8BFA3F545
:10154000804312F5005FB8BF00F58043BCF82E0061
:101550001944A0EB0E020346B2F5005FC8BFA3F525
:10156000804312F5005FB8BF00F58043BCF830003F
:101570001944A0EB0E020346B2F5005FC8BFA3F505
:10158000804312F5005FB8BF00F58043BCF832001D
:101590001944A0EB0E020346B2F5005FC8BFA3F5E5
:1015A000804312F5005FB8BF00F58043BCF83400FB
:1015B0001944A0EB0E020346B2F5005FC8BFA3F5C5
:1015C000804312F5005FB8BF00F58043BCF83600D9
:1015D0001944A0EB0E020346B2F5005FC8BFA3F5A5
:1015E000804312F5005FB8BF00F58043BCF83800B7
:1015F0001944A0EB0E020346B2F5005FC8BFA3F585
:10160000804312F5005FB8BF00F58043BCF83A0094
:101610001944A0EB0E020346B2F5005FC8BFA3F564
:10162000804312F5005FB8BF00F580435818C1171A
:1016300000EB11710A1110F10F0F4FF48043B8BF86
:1016400003EB2112B2F58040D8BF104680BD0000E8
:1016500040F26820C2F2000001F04CB940F2F020E4
:10166000C2F2000001F046B940F2AC20C2F2000024
:1016700001F040B9704700001318B3F5806F3ED8F1
:10168000002A08BF7047F0B500F1006000F57C4CFF
:10169000501E032802F0030E04D20022BEF1000FF8
:1016A0001AD12AE022F003004242481C0CF1010446
:1016B0006FF00303E518EE78C718FE702E79043337
:1016C0003E716E797E71AD79D6180436BD71F1D157
:1016D0001A1DBEF1000F10D01CF80200BEF1010F60
:1016E00088540AD0501C1CF80030BEF1020F0B5475
:1016F00003D0901C1CF800200A54BDE8F04070474D
:10170000F0B581B006461044B0F5806F84BF01B0DB
:10171000F0BD40F20167C2F20007387814460D466A
:1017200038B940F21C00C2F2000004F071FC012044
:10173000387040F21C07C2F20007384604F060FC23
:1017400006F1006000F57C41384604F097FC601C0F
:1017500042083846294604F09BFC384601B0BDE8F3
:10176000F04004F089BC000047F60040C0F60000DD
:1017700001884FF6FD720139914288BF704740F2EF
:10178000EC01C2F2000101220A7003F093BC0000D8
:1017900040F2EC00C2F200000078704740F2EC002A
:1017A000C2F200004078704770B503F089FC40F247
:1017B000EC04C2F200046068DFE800F0045C224E32
:1017C000146C9A006078012840F09180E0684FF432
:1017D000FA6104F0A9FC4FF44840E060002060800A
:1017E000012083E0E0684FF4FA610138E06004F022
:1017F0009BFCE068B0F5C83F79D1052076E000BFDA
:10180000E06801061CD103F049FC62880146501CC7
:1018100083B26080E06804EB4202102B918311D107
:10182000A0F548460546FFF70BFE40F2046301466B
:10183000320AC2F20003284623F812100021618008
:101840000130E0604FF4FA6104F06EFCE068B0F53E
:10185000C83F4CD9032049E0E0684FF4FA610130F9
:10186000E06004F061FCE068B0F5D23F3FD10420B5
:101870003CE000BFE0684FF4FA610230E06004F041
:1018800053FCE068B0F5C83F31D14FF44840E06008
:1018900002202BE0E06801061CD103F0FFFB628808
:1018A0000146501C83B26080E06804EB4202102BBA
:1018B000918311D1A0F548460546FFF7C1FD40F2DE
:1018C00096730146320AC2F20003284623F812102A
:1018D000002161800138E0604FF4FA6104F024FCDB
:1018E000E068C00A182888BF70BD0620606070BD1F
:1018F00000200021BDE8704004F016BC2DE9F04F37
:1019000083B040F2EC08C2F20008D8F804000628C0
:1019100040F0A38204F070FC40F2046A40F2967139
:101920004FF0000CC2F2000AC2F20001002204E0F3
:101930000632B2F5C97F9F803ED03AF80270885ACD
:101940003B1A384448BF5B42B3F5005F4FEA50068C
:1019500006D9B0F5804F34BF46F40056A6F50056C0
:101960000AEB02038F185D8878882AF802602C1A27
:10197000284448BF6442B4F5005F4FEA500606D9D8
:10198000BCEB903F14BFA6F5005646F400569D8868
:10199000B8885E802F1A48BF7F422844B7F5005FA1
:1019A0004FEA5007C4D9BCEB903F14BFA7F50057CE
:1019B00047F40057BCE700BFBAF80050BAF88E01F0
:1019C00040F21409281AB0F5005FC8BFA0F58040A6
:1019D00010F5005FB8BF00F580400028C2F2000992
:1019E00000F0BE804FF00001C8BF012189F800104F
:1019F00001212B463AF811204EF20007D31AB3F515
:101A0000005FCFF6FF77C8BFA3F58043BB42B8BFE6
:101A100003F58043002B1F4648BF5F427A2F80F0BA
:101A2000AD80272F40F2B880002B00F0C380002843
:101A30004FF00007C8BF0127012B4FF00003B8BFCC
:101A400001235F4000F0C0800131C8291346D1D185
:101A5000002043F6FF720021002303E00A33C82B65
:101A600000F0BC800AEB43046688B5F5405F06D9F8
:101A7000B0EB163F02BF0131571BC8E90437A788F6
:101A8000B6F5405F07D9B0EB173F04D15D1C0131BB
:101A9000961BC8E90456E688B7F5405F07D9B0EB56
:101AA000163F04D19D1C0131D71BC8E90457278973
:101AB000B6F5405F07D9B0EB173F04D1DD1C01310B
:101AC000961BC8E904566689B7F5405F07D9B0EBA5
:101AD000163F04D11D1D0131D71BC8E90457A78942
:101AE000B6F5405F07D9B0EB173F04D15D1D01315A
:101AF000961BC8E90456E689B7F5405F07D9B0EBF5
:101B0000163F04D19D1D0131D71BC8E90457278A10
:101B1000B6F5405F07D9B0EB173F04D1DD1D0131A9
:101B2000961BC8E90456668AB7F5405F08D9B0EB42
:101B3000163F05D103F108050131D71BC8E9045749
:101B4000A58AB6F5405F7FF689AFB0EB153F7FF40D
:101B500085AF03F109070131961BC8E904767DE7DB
:101B60000120C8F8080047F62F70C0F6000005F005
:101B70003BFDD8F8080000283DD14FE00220C8F80E
:101B8000080047F67860C0F6000005F093F8D8F832
:101B9000080080BB42E000BF0220C8F8080047F6FA
:101BA0009860C0F6000005F085F8D8F8080010BB72
:101BB00034E000BF0120C8F80800D3A005F07AF88F
:101BC000D8F80800B8B929E00120C8F80800B4A086
:101BD00005F070F8D8F8080068B91FE0012913D1A2
:101BE0000020D8E90412C8F80800BDA005F062F88A
:101BF000D8F8080090B10020C8F8040088F8010067
:101C000003B0BDE8F08F00BF0320C8F80800ADA006
:101C100005F050F8D8F808000028ECD140F22C0468
:101C20000020C2F20004C8F81800204604F0F0F9C1
:101C3000204604F0E5F999F80010D8F810C0002902
:101C400076D048F21F57C5F2EB174FF0C80E4FF48D
:101C5000484B644605E000BF8C4204F1010480F269
:101C6000DB8004F1C901A1FB072304F1C802A2FB38
:101C700007659B0903FB1E11AB0903FB1E223AF803
:101C800011103AF812204EF20000A1EB0209B9F54A
:101C9000005FCFF6FF70C8BFA9F580498145B8BF86
:101CA00009F5804964454FF000020CF1C801D8F8ED
:101CB000143008BF1A468C4218BF4B469342CBDD06
:101CC0000BEB042540F22C0B01949E1AC2464FEAFE
:101CD0000228C2F2000B0DF10A0400BF98FBF9F0D4
:101CE0002844A0FB0712910B4FF4484201FB12005D
:101CF0002146ADF80A005846012204F0C9F9DAF885
:101D00001800013E00F1010008F58078CAF81800BB
:101D1000E4D1DAF810C0D04640F2046A019C0CF11C
:101D2000C801C2F2000A4FF0C80E4FF4484B93E7C7
:101D300048F21F5540F22C060CF1C804C5F2EB1511
:101D40004FF0C80BC2F2000604E000BF6445A4F1E6
:101D5000010461DD04F1C801A1FB052E04F1C902F3
:101D6000A2FB05034FEA9E1000FB1B10990901FB23
:101D70001B213AF810003AF81110A0EB01094EF2BD
:101D80000000B9F5005FCFF6FF70C8BFA9F5804924
:101D900081450CF1C800B8BF09F5804984424FF075
:101DA0000001D8F8142008BF1146644518BF4A4600
:101DB0008A42CBDD4FF44940019400EB042A0DF137
:101DC0000A07A2EB010B44464FEA012898FBF9F001
:101DD000AAEB0000A0FB0512910B4FF4484201FB57
:101DE00012003946ADF80A003046012204F050F9DD
:101DF000A069BBF1010B00F1010008F58078A0613A
:101E0000E4D1D4F810C0A04640F2046A019CC2F2AA
:101E1000000A4FF0C80B99E740F22C0047F6004447
:101E2000C2F20000C0F6000404F026F9D8F8181039
:101E3000228847F6D360C0F6000004F03BFFD8F8D4
:101E40001800B0F5804F0BD10120A8F80000D8F899
:101E500008000021C8F8041060B103B0BDE8F08F9D
:101E600004200021C8E9011088F8011003B0BDE882
:101E7000F08F00BF21886288A38847F60970C0F6FA
:101E8000000004F017FF218847F6B860C0F6000094
:101E900004F010FF01F092F903B0BDE8F08F00BF2D
:101EA0004572726F723A20446972656374696F6E2D
:101EB000206D69736D617463682C20693D25640D24
:101EC0000A0000004572726F723A205068617365B3
:101ED00020737465702C206E756D3D25750D0A009C
:101EE000436865636B4461746120504153532C20F7
:101EF0007263645F783D25642C207263645F793D72
:101F000025640D0A000000004572726F723A205A73
:101F100065726F2064656C74612C20693D25640DC9
:101F20000A00000040F2EC00C2F20000017851B952
:101F30004178002918BF7047012141700021C0E994
:101F40000111C16041807047EFF3108072B600BF8D
:101F5000FEE7000070B542F20C060446C4F2020629
:101F600001F070F83168C9071CD13068800644BFA1
:101F7000202030603068C00607D43069C00704D123
:101F8000306840075CBF002070BD3068C00640F27A
:101F9000E040C2F2000021D400213268520725D46B
:101FA0002AE000BFC4B10546601C10D13068C007EC
:101FB000DBD03068C0071CBF30685FEAC070D4D087
:101FC0003068C007F2D1D0E73068C007CDD001F04B
:101FD00039F8401BA042F7D9032070BDC16941F018
:101FE0000201C16110213268520705D5C26941F072
:101FF000040142F00102C2613269D20702D101201C
:10200000316070BDC26942F00402C261306920F0E3
:10201000010030610120316070BD000010B581B059
:102020000022009290F82420012A03D102210846C0
:1020300001B010BD4B680122062B80F8242033D854
:10204000D0F800C003EB83035A1F1F23DCF834E0F1
:1020500003FA02F40B682EEA040403FA02F22243A4
:10206000CCF83420092B03EB430249D9DCF80CE00F
:102070001E3A0724896894402EEA0404914023F014
:1020800001022143102ACCF80C1043D142F208413E
:10209000C4F20101A1F10802944543D0816A41F0E4
:1020A00020018162012136E0D0F800C00C2B03EB47
:1020B000830213D8233A1F23DCF830E003FA02F43A
:1020C0000B682EEA040403FA02F22243CCF8302013
:1020D000092B03EB4302C9D812E000BF413A1F238A
:1020E000DCF82CE003FA02F40B682EEA040403FA8D
:1020F00002F22243CCF82C20092B03EB4302B5D883
:10210000DCF81030072489689440A34391401943B8
:10211000CCF810100021002280F82420084601B0DD
:1021200010BD00BF0A681202F4D40A68102B42F4F2
:1021300000020A60EED140F21001C2F2000109680B
:102140004DF68362C4F21B32A1FB0212910C01EB2B
:1021500081014900009100990029DBD000990139E3
:10216000009100990029D5D000990139009100997A
:102170000029CFD000990139009100990029C9D0D8
:10218000009901390091009900294FF00001E5D133
:10219000C1E70000002804BF01207047B0B5044625
:1021A000806A28B121688868C0070CD115E000BF9B
:1021B0000020E06284F82400204600F097F82168AF
:1021C0008868C00709D0886820F00100886000F0A6
:1021D00039FF21688A68D20726D1A06AC0063AD49E
:1021E000A06A41F2021290430230A062E069D4E991
:1021F000013240EA030C531EB3FA83F35D09134620
:10220000B2F5807F18BF2B02207D257B01284CEA88
:1022100045002CD135B3A56A45F02005A562E56AD5
:1022200045F00105E56222E0054602E08868C00746
:10223000D3D000F007FF401B21680328F6D388683D
:10224000C007F3D0A06A40F01000A062E06A40F03E
:102250000100E062A06AA06A40F01000A0620120C4
:10226000B0BD00BFA56903EB4533A3F5C0534D686E
:10227000B2F5807F25F4694543EA05034B608B681E
:102280004FF2FD75CFF6E17503EA050343EA00035B
:102290008B6001D0012A07D122690023CFF6F073A9
:1022A00003EB025201E000BF0022CB6A23F470036B
:1022B0001A43CA62896840F6FE62CFF61F72114067
:1022C000814207D10020E062A16A012262F301018C
:1022D000A162B0BDA06A40F0100020F00200A06230
:1022E000E06A40F00100E0620120B0BD70B586B048
:1022F000044640F60000C4F20100216800F5E052F7
:10230000002691420596CDE90366029602D006B0FA
:1023100070BD00BF41F21801C4F202010A6842F424
:1023200000720A600A6802F400720192019A0A6857
:1023300042F004020A60096801F004010191019968
:10234000012102910321039102A900F065FD40F2F1
:1023500068250820C2F20005C4F202004FF4807222
:10236000C5E9000605F1100080214FF480634FF0AD
:10237000200C4FF4405E80E80C502846C5E902610D
:1023800000F086FB002818BFFFF7DEFD25626C62B7
:1023900006B070BD704700002DE9F04F81B00446D3
:1023A00000684669D0F804908768D0F80CB0D0F87F
:1023B00010A0D0F81880F10704D1002530071DD4F3
:1023C00024E000BFF90710D00121BA07816009D4C9
:1023D000780700F1AF80380700F1B680204600F0A2
:1023E000FFF902E0204600F0FDF90025F80500F1B4
:1023F0008780F80300F1B180300707D51BF010008B
:1024000004D0206845F400751021C160700708D51C
:102410001BF0080005D020680821C160204600F0AC
:10242000D5F9B00706D52068C068800702D02046DD
:1024300000F0CEF9700607D51AF0100004D020681D
:1024400045F4806510210161B00608D51AF0080036
:1024500005D0206808210161204600F0BBF9F00694
:1024600006D520680069800702D0204600F0B4F944
:10247000B00308D519F0100005D020681021416084
:10248000204600F0ABF9F00308D519F0080005D09C
:10249000206808214160204600F0AEF9300440F188
:1024A0009B805FEA497040F1948006F4807008EAEE
:1024B000102028435FEA8871014648BF41F00201BD
:1024C000B20558BF01465FEA48700D4648BF45F067
:1024D0000405700558BF0D46300540F17A8018F0AC
:1024E000700000F076801038000905286CD8DFE80D
:1024F00000F003655D61596945F0080564E000BFBF
:1025000020684FF48071BA0581600BD4780515D42A
:1025100038051DD4204600F067F9F8037FF56CAF4D
:102520001BE000BF204600F061F9F8037FF564AFBF
:1025300013E000BF4FF4006558E700BF05F50055F4
:10254000F8037FF559AF08E04FF480554EE700BF20
:1025500005F58045F8037FF54FAF20684FF48031D3
:10256000BA0381600AD4780310D4380314D4204607
:1025700000F03EF930073FF541AF47E7204600F055
:1025800039F930073FF53AAF40E700BF05F50045A0
:1025900030073FF533AF39E705F5803530073FF5B4
:1025A0002DAF33E745F080050EE000BF45F0200574
:1025B0000AE000BF45F0400506E000BF45F0100509
:1025C00002E000BF45F480752068816921F0700148
:1025D000816120680421416055B1606A40EA0501CB
:1025E0002046616201B0BDE8F04FFFF7D3BE00BFE7
:1025F00001B0BDE8F08F0000002804BF0120704743
:10260000B0B5044690F8200010B9204600F06EF8EE
:102610002068016841F00101016000F013FD0546EA
:1026200020684168C90705D100F00CFD401B0B284C
:10263000F6D310E0016821F00201016000F002FD14
:10264000054600BF2068416889070DD500F0FAFCF7
:10265000401B0B28F6D3606A052140F4003060620D
:10266000012084F82010B0BD217E0268012922F0EB
:10267000800208BF80320260617E0268012922F078
:10268000400208BF40320260A17E0268012922F0A8
:10269000200208BF20320260E17E0268012922F098
:1026A000100218BF10320260217F0268012922F057
:1026B000080208BF08320260617F0268012922F027
:1026C000040208BF04320260D4E901C2D4E9033530
:1026D00061691A432A431143ACF101021143C161FC
:1026E00000200121606284F82010B0BDB0B586B032
:1026F000006846F20042C4F20002002190420591B7
:10270000CDE90311029101D006B0B0BD41F218002D
:10271000C4F20200426840F6004442F00072426097
:102720004268C4F2010402F000720192019A026848
:1027300002AD42F008020260006800F0080001905B
:1027400001984FF48070CDE902010491204629469A
:1027500000F062FB4FF4007002900220039003200F
:1027600005902046294600F057FB0420C4F20100E2
:10277000016849F6FF72CFF6FF02114041F0E061B7
:1027800041F48041016013200321002200F0DAFCB3
:10279000132000F0C5FC14200321002200F0D2FC1D
:1027A000142000F0BDFC15200321002200F0CAFC1B
:1027B000152000F0B5FC16200321002200F0C2FC19
:1027C000162000F0ADFC06B0B0BD00007047000060
:1027D000704700007047000070470000704700001D
:1027E000704700007047000070470000704700000D
:1027F000704700007047000070470000014690F8E5
:102800002100022816D10868D1E90FC3026822F01E
:102810000E020260026822F001020260012000FA4A
:1028200003F2CCF8042081F821000020002281F876
:1028300020207047042088630120002281F8202096
:102840007047000090F82110022923D1026840F25D
:10285000040C1168C4F2020C21F00E01116013681F
:102860002F21C4F202018A4223F00103136015DD17
:102870003023C4F202039A421CD04423C4F2020360
:102880009A421BD05823C4F202039A421CD14FF43F
:10289000803321E004218163012070470823C4F2C2
:1028A00002039A420ED01C23C4F202039A420BD1B7
:1028B000102311E04FF480730EE000BF4FF48053FB
:1028C0000AE000BF012307E00CF168014FF08073BC
:1028D0008A4208BF4FF48013CCF80030416B4FF4AC
:1028E00080720029028404BF0020704780B58847A9
:1028F000002080BD10B5D0E90FCE0168DCF80030B3
:102900000A6823FA0EF35C072AD512F0040427D0D4
:102910000A68920603D40A6822F004020A602F2291
:10292000C4F20202914240F20402C4F2020259DDF2
:102930003023C4F20203994270D04423C4F202034C
:10294000994271D05823C4F20203994278D14FF4CE
:1029500080231360C16A002940F097806EE000BFB9
:102960009C0727D512F0020424D00A68920606D4E8
:102970000A6822F00A020A60012280F821202F2230
:10298000C4F20202914240F20402C4F2020239DDB2
:102990003023C4F2020399425ED04423C4F20203FE
:1029A00099425DD05823C4F2020399425ED14FF49C
:1029B000003363E01B0741D512F0080208BF10BDC9
:1029C0000A6822F00E020A60012101FA0EF2CCF828
:1029D00004208163016B4FF480720029028454D17A
:1029E0002CE000BF0823C4F20203994222D01C232A
:1029F000C4F20203994223D140231360C16A002923
:102A000043D11BE00823C4F2020399422CD01C23BB
:102A1000C4F20203994229D120232FE04FF48063AE
:102A20001360C16A89BB09E04FF480431360C16A37
:102A300059BB03E004231360C16A31BB10BD00BF62
:102A400002F168044FF08063A14208BF4FF4800395
:102A50001360C16AC9B9F1E74FF400730EE000BF1B
:102A60004FF400530AE000BF022307E002F16804BC
:102A70004FF00073A14208BF4FF400131360816A46
:102A80000022002980F82020D8D0BDE81040084757
:102A9000002804BF012070472DE9F04101684FF67E
:102AA000F872CBF6FD724CF6CD430A44CCF6CC431B
:102AB000A2FB03236FF0030202EA93020023C4F295
:102AC000020300F1040E00F11007C0E90F329EE886
:102AD0000051F0CF0A6843F6F0739A4342EA0802C5
:102AE00042EA0C0242EA0E0222432A4332433A43AC
:102AF0000A6000214FF4807281630284BDE8F041D6
:102B00000846704790F820C0BCF1010F04BF0220B6
:102B10007047F0B590F821C04FF0010EBCF1010FE5
:102B200080F820E026D14FF0020C80F821C04FF051
:102B3000000CC0F838C0D0E900C4C56AC66BDCF828
:102B40000070102C27F00107CCF80070006C0EFA12
:102B500000F070600846CCF8043004BF10460A4606
:102B6000CCF80800CCF80C20DCF8000045B140F0AF
:102B70000E000DE0002180F820100220F0BD00BF03
:102B800020F00400CCF80000DCF8000040F00A005F
:102B9000CCF80000DCF8000040F00100CCF80000A8
:102BA0000020F0BDB0B5044600F04CFA054640F2F6
:102BB0000400C2F200000078611C18BF044400BF8A
:102BC00000F040FA401BA042FAD3B0BD2DE9F0431B
:102BD00081B040F2E045C2F200052A7E012A03D10D
:102BE000022001B0BDE8F083044601202668287663
:102BF0004CF250308846FFF7ADF9022E1CD1002868
:102C00004ED1002042F21004E861C4F202042068B0
:102C100040F004002060206840F0400020604CF24A
:102C20005030FFF797F9216821F00401216000215D
:102C3000297601B0BDE8F08390BB4FF0FF30C8F8B3
:102C40000000D4E90270414607EB8020874227D27A
:102C500042F21006C4F202064FF00009C5F81C90BB
:102C6000306840F0020030607760306840F040002B
:102C700030604CF25030FFF76DF9316821F00201FD
:102C8000316098B9D4E9020107F5806700EB812033
:102C90008742E3D300200021297601B0BDE8F0830C
:102CA00001200021297601B0BDE8F083C8F800704A
:102CB0000021297601B0BDE8F083000042F2100146
:102CC000C4F20201086840F0800200200A607047E8
:102CD0002DE9F04381B040F2E047C2F2000716460A
:102CE0003A7E012A04D1022001B0BDE8F08300BF82
:102CF0000546012038764CF250300C469846FFF7D6
:102D000029F928B10021397601B0BDE8F08300BF70
:102D100042F210090020C4F20209F861D9F800005B
:102D200040F00100C9F800004CF250302680FFF757
:102D300011F9D9F80010002821F00101C9F800109C
:102D400018BF0046DED1012DDCD00020F861D9F893
:102D50000000310C40F00100C9F800004CF2503086
:102D60006180FFF7F7F8D9F80010002821F0010181
:102D7000C9F80010C6D1E81E10F1030F4FF0000093
:102D8000C0D8F861D9F8000040F00100C9F800008F
:102D90004CF25030A4F80480FFF7DCF8D9F80010AA
:102DA000002821F00101C9F80010ABD10020F86122
:102DB000D9F800004FEA184140F00100C9F80000BE
:102DC0004CF25030E180FFF7C5F8D9F80010002828
:102DD00021F00101C9F8001018BF00460021397622
:102DE00001B0BDE8F083000042F20400C4F202002A
:102DF000C16809065CBF0020704740F22311C4F28D
:102E00006751016048F6AB11CCF6EF510160C06824
:102E1000C0B2C009704700002DE9F04F82B00E68C3
:102E2000002E00F0FF8040F20C4C40F2004E41F2C8
:102E30000042C4F2010CC4F2010EC4F201020427E4
:102E4000002401234FF0000A4FF00009904208BF10
:102E50000327009749E000BF41F20002C4F20102DB
:102E6000009F904208BF022704F00C030F229A40F3
:102E70002BEA020207FA03F34FEA9A051A4346F8CF
:102E800025204E68F203DEF8002054BF22EA080233
:102E900042EA0802CEF80020DEF80420B30354BF53
:102EA00022EA080242EA0802CEF80420F302DEF821
:102EB000082054BF22EA080242EA0802B302CEF810
:102EC0000820DCF800204FF0010354BF22EA08027A
:102ED00042EA0802CCF800200E680AF1010A36FA2C
:102EE0000AF204F1040400F09D8003FA0AFB16EADA
:102EF0000B08F1D04E684FF6FF72C1F210029642F5
:102F000012DC122E56D8DFE806F0350B4D49555528
:102F1000555555555555555555555545510000BFB5
:102F2000D1F80C9046E000BF4FF6FF72C1F22102CB
:102F300096420FDC0022C1F2110296421AD0002202
:102F4000C1F21202964215D00022C1F2210296422D
:102F500010D02FE00022C1F2220296420AD00022B5
:102F6000C1F23102964205D00022C1F232029642ED
:102F700020D100BF8A684AB1012A14BFC0F814B03A
:102F8000C0F810B04FF0080914E000BF4FF004097A
:102F900010E000BFCA6802F104090BE04FF000091D
:102FA00008E000BFCA6802F1080903E0CA6802F13C
:102FB0000C0900BF02462646B8F5807F24BF0432C4
:102FC000203E17680F25B54027EA050509FA06F6E1
:102FD00035431560CA79D2067FF57EAF41F21803FA
:102FE000C4F202031A68AEF57E7642F001021A605E
:102FF0001A6802F001020192019A2AF0030256F8BF
:1030000002B040F60002C4F20102904208D040F63D
:103010000042C4F2010290427FF41EAF012723E771
:10302000002721E702B0BDE8F08F0000806808406B
:1030300018BF012070470000002A08BF0904016181
:103040007047000040F62810C2F200000068704788
:1030500040F2040040F62811C2F20000C2F2000162
:1030600000780A68104408607047000080B542F29A
:103070000000C4F20200016841F010010160032069
:1030800000F08CF8002000F005F800F027F8002090
:1030900080BD000070B540F20406C2F2000640F2A6
:1030A00010013278C2F200014FF47A730968B3FB61
:1030B000F2F20446B1FBF2F1084600F0FDFD0F2CE0
:1030C0004FF0010508D838B94FF0FF3021460022F3
:1030D000002500F037F87460284670BD82B041F2D8
:1030E0001800C4F202000168022241F001010160EF
:1030F000016801F0010101910199416841F080519D
:103100004160406800F08050009000980420C4F2B4
:103110000100016862F31A61016002B070470000AB
:10312000002848BF704700F01F01012202FA01F198
:103130001C2202EAD0004EF20012CEF200028150B0
:103140007047000010B54EF60C5CCEF2000CDCF8B7
:103150000030C3F3022E8EF00704042C28BF042491
:10316000BEF103034FF0FF3E0EFA04F438BF002314
:10317000A14399400EFA03F39A43114300F00F0262
:1031800000F160430901043A03F5644362440028F6
:1031900048BF02F10C03197010BD00004EF60C512F
:1031A000CEF200010A684FF6FF031A4060F30A22CC
:1031B00042F0806040F0FD700860704703F006FC4C
:1031C0002DE9F04182B00446007841F21C06C007A8
:1031D000C4F202064AD030685FEAC00808D43068FA
:1031E00040F080503060306800F0805001900198CD
:1031F00047F20007C4F200073868C00512D43868E7
:1032000040F480703860FFF71DFF05463868C00540
:1032100008D4FFF717FF401B6428F7D9032002B03A
:10322000BDE8F081706810F4407012D0616801F45C
:10323000407188420DD0706840F24042C4F2422290
:10324000012320F4407113600023C00713607160F4
:1032500026D17068616820F440700843B8F1000F0F
:10326000706003D4306820F080503060206881079F
:1032700007D556F8181CA26821F44041114346F8BE
:10328000181CC00607D556F8180CE16820F4800019
:10329000084346F8180C002002B0BDE8F08100BFDA
:1032A000FFF7D0FE054641F2883700BF70688007FF
:1032B000CFD4FFF7C7FE401BB8424FF00300F5D94B
:1032C000EAE70000002804BF012070472DE9F04321
:1032D00081B042F20008C4F202080446D8F80000A7
:1032E0000D4600F0070088420CD2D8F8000020F00C
:1032F00007002843C8F80000D8F8000000F00700D5
:10330000A8426ED1206841F204098107C4F2020983
:1033100017D5410705D5D9F8001041F4E061C9F887
:103320000010010705D5D9F8001041F46051C9F823
:103330000010D9F80010A26821F0F0011143C9F87B
:103340000010C00744D1D8F8000000F00700A842E0
:103350000CD9D8F8000020F007002843C8F8000076
:10336000D8F8000000F00700A8423AD120684107D1
:1033700007D5D9F80010E26821F4E0611143C9F8DB
:103380000010000708D5D9F80000216920F460502A
:1033900040EAC100C9F80000D9F8001041F6003039
:1033A00001F00C02042AC0F2B70055D0082A41D11E
:1033B00047F26663C1F38342C0F600039A5CC90317
:1033C0003ED440F60010C0F23D00504344E000BF40
:1033D000606859F8041C022808D0012826D1890306
:1033E00006D4012001B0BDE8F08300BF8901F8D503
:1033F000D9F8001021F003010843C9F80000FFF7D5
:1034000021FE064641F28837D9F80000616800F0D5
:103410000C00B0EB810F96D0FFF714FE801BB84272
:10342000F2D9032001B0BDE8F08300BF8907D8D5E9
:10343000DEE700BF41F20020C0F27A000CE000BFDE
:10344000D9F8001047F24C63C1F34041C0F60003C5
:10345000595C5043B0FBF1F0D9F8001047F24E62CE
:10346000C1F30311C0F60002515C40F2100220FAD1
:1034700001F140F20800C2F200000068C2F200024E
:103480001160FFF707FE002001B0BDE8F0830000E7
:1034900040F2100041F20401C2F20000C4F2020145
:1034A0000068096847F25E62C1F30221C0F60002BB
:1034B000515CC8407047000040F2100041F2040126
:1034C000C2F20000C4F202010068096847F25E62BD
:1034D000C1F3C221C0F60002515CC8407047000031
:1034E000002804BF012070472DE9F04182B0044656
:1034F000007841F20006C007C4F202060CD07068E2
:1035000000F00C00042840F081803068800303D56F
:103510006068002800F04681207880071BD570681D
:1035200010F00C0F09D0706800F00C00082840F073
:1035300087807068C00300F183803068800703D5FE
:103540002069012840F02E813068616920F0F80080
:1035500040EAC10030602078000713D4207840078B
:103560002CD4E569002D00F01881706800F00C0083
:10357000082840F0A780012D40F00481012002B00E
:10358000BDE8F081A069002800F084800020C4F22A
:1035900042200121C0F88014FFF754FD054600BF0A
:1035A000706A800700F1B280FFF74CFD401B0228D3
:1035B000F6D9032002B0BDE8F08100BFF0695FEAF0
:1035C000C00808D4F06940F08050F061F06900F064
:1035D00080500090009847F20007C4F20007386856
:1035E000C00549D4386840F480703860FFF72AFD80
:1035F000054600BF3868C0053ED4FFF723FD401BD9
:103600006428F7D9032002B0BDE8F081706800F0AB
:103610000C00082803D17068C0033FF576AF6168DD
:103620003068002900F00C81B1F5A02F00F0008176
:10363000B1F5803F40F01A8140F480301CE100BFBA
:103640002069002840F20000C4F2422000F0888087
:1036500001210160FFF7F6FC054600BF30688007D6
:103660003FF572AFFFF7EEFC401B0228F6D90320AE
:1036700002B0BDE8F08100BFE168306A002900F0C7
:103680009D80052900F09280012940F0AF8040F034
:103690000100B1E00020C4F242200021C0F88014F3
:1036A000FFF7D0FC054600BF706A80077FF556AF74
:1036B000FFF7C8FC401B0228F6D9032002B0BDE882
:1036C000F08100BF0027C4F2422700203866FFF7D0
:1036D000B9FC022D05460DD13068800140F1DE8035
:1036E000FFF7B0FC401B02284FF00300F4D902B0F2
:1036F000BDE8F081306880014FD5FFF7A3FC401B87
:1037000002284FF00300F5D9F1E700BF40F21000A6
:10371000C2F20000006844F6D351C1F26201A0FB7E
:103720000101480A019000BF00BF0198411E002816
:1037300001913FF413AF00BF0198411E0028019191
:103740003FF40CAF00BF0198411E002801913FF4E7
:1037500005AF00BF0198411E00280191E4D1FDE6AC
:1037600000210160FFF76EFC054600BF306880074E
:103770007FF5F1AEFFF766FC401B02284FF0030017
:10378000F4D9B4E77068216A00F480328A4209D122
:10379000616A00F47010884204D1002002B0BDE8D4
:1037A000F08100BF012002B0BDE8F08140F00400CC
:1037B0003062306A40F001001EE000BF20F00100DE
:1037C0003062306A20F004003062FFF73BFC0546AF
:1037D00041F28837306A800720D5FFF733FC401B61
:1037E000B8424FF00300F5D981E700BF20F0010097
:1037F0003062306A20F004003062FFF723FC054697
:1038000041F28837306A800708D4FFF71BFC401B61
:10381000B842F7D9032002B0BDE8F081B8F1000F3B
:103820003FF59FAEF06920F08050F06199E600BF4F
:1038300040F480203060306840F480301CE000BFED
:1038400020F480303060306820F480203060FFF752
:10385000F9FB0546306880037FF55EAEFFF7F2FBAB
:10386000401B64284FF00300F4D940E720F4803077
:103870003060306820F480203060FFF7E3FB0546BD
:10388000306880033FF548AEFFF7DCFB401B64283F
:10389000F6D9032002B0BDE8F08100BF206AB0F580
:1038A000803F05D17168A26821F400311143716035
:1038B0007168626A21F47411114308437060012039
:1038C0003866FFF7BFFB0446306880013FF565AFFF
:1038D000FFF7B8FB001B02284FF00300F4D906E7FE
:1038E00070B528B1416A29B100210161142106E0B7
:1038F000012070BD4168B1F5827F02D01C210022F9
:1039000042500026866290F8511029B980F8506024
:10391000054600F039F82846022180F8511090E859
:103920002E0002F482720C6803F4044324F0400475
:103930000C601A4405F4006305691A4405F002039B
:1039400045691A4405F001038569C4691A4405F400
:1039500000731A4404F03803046A1A4404F0800324
:10396000846A1A4304F400531A430A60042202EAE8
:1039700015424A60CA6922F40062CA6101214665A3
:1039800080F85110304670BD70B586B040F60044E6
:10399000C4F20104006804F510510026884205961F
:1039A000CDE90366029601D006B070BD41F2180061
:1039B000C4F20200016802AD41F480510160016867
:1039C00001F4805101910199016841F00801016001
:1039D0000068294600F00800019001982820029014
:1039E00002200390032005902046FFF715FA1020CF
:1039F000CDE90206204629460496FFF70DFA042079
:103A0000C4F20100016841F0E06141F00101016090
:103A100006B070BD2DE9F04381B0044690F8500027
:103A2000012803D1022001B0BDE8F08301201E4629
:103A300015460F4684F85000FFF704FB94F8511028
:103A40008146012940F09880002F4FF0010018BFF7
:103A5000002D00F02781002E00F0248194F8510001
:103A6000002104281CBF052084F851006165A5636E
:103A7000E687A6872763E6862068A68621646164B8
:103A80000168490603D4016841F0400101606168A2
:103A9000731EE268B1FA81F1B3FA83F3DDF8208096
:103AA00049095B09B2F5006F41EA030174D131B1F4
:103AB00037F8021BC1602763E08E0138E0860125DC
:103AC00018F1010031D101E0FFF7BCFAE08E18B91E
:103AD000E08F002800F0C8802068816889070CD535
:103AE000E18E51B1012D08D1216B002531F8022B57
:103AF000C2602163E18E0139E1868168C907E3D0A4
:103B0000E18F0029E0D0C068A16B012521F8020BEC
:103B1000A163E08F0138E087D6E700BFFFF792FA94
:103B2000A0EB0900404580F0AF80E08E18B9E08F2F
:103B3000002800F099802068816889070CD5E18E03
:103B400051B1012D08D1216B002531F8022BC26043
:103B50002163E18E0139E1868168C907DED0E18FFA
:103B60000029DBD0C068A16B012521F8020BA163FD
:103B7000E08F0138E087D1E76068B0F5827F09D136
:103B800004294FF0020040F08D80A16800293FF425
:103B90005BAF87E0022085E039B139780173206B93
:103BA00001302063E08E0138E086012518F1010024
:103BB00032D101E0FFF746FAE08E10B9E08F00281D
:103BC00052D02068816889070ED5E18E61B1012D40
:103BD0000AD1216B002509780173216B206801311E
:103BE0002163E18E0139E1868168C907E2D0E18F66
:103BF0000029DFD0C068A16B01250870A06B0130DF
:103C0000A063E08F0138E087D4E700BFFFF71AFA1E
:103C1000A0EB0900404537D2E08E08B9E08F18B319
:103C20002068816889070ED5E18E61B1012D0AD126
:103C3000216B002509780173216B20680131216314
:103C4000E18E0139E1868168C907DFD0E18F002963
:103C5000DCD0C068A16B01250870A06B0130A063A7
:103C6000E08F0138E087D1E72046802142464B466D
:103C700002F052F950B1606D40F0200060652020E4
:103C8000606501200EE000BF03200BE0A068002863
:103C90004FF0000006D100902168CA680092896840
:103CA00000910099012184F85110002184F85010EE
:103CB00001B0BDE8F0830000411E0020B0EB116FA1
:103CC0001CBF012070474EF21002CEF2000251607C
:103CD0004EF62351CEF20001F0230B7007219060C5
:103CE00011607047704700007047000090F83C205A
:103CF000012A4FF0020236D010B580F83D2002684C
:103D0000D2F804E0D2F808C00C682EF07003234308
:103D100040F2FF74C4F20004A24253600ADCB2F124
:103D2000804F13D040F20043C4F200039A420DD0FA
:103D300011E000BF42F60043C4F201039A4205D0ED
:103D400040F60003C4F200039A4204D149682CF003
:103D50008003194391600121002280F83D1080F812
:103D60003C20BDE81040104670470000002804BF0A
:103D70000120704710B590F83D1031B9002180F84E
:103D80003C10044600F068F82046022180F83D10FF
:103D9000016840F2FF740B68C4F2000442F6004C64
:103DA000A142C4F2010C15DCB1F1804F1AD040F2EF
:103DB0000042C4F20002914214D0A14218DCB1F1D9
:103DC000804F1DD040F20042C4F20002914217D051
:103DD0001AE000BF614505D040F60002C4F20002BF
:103DE0009142EAD1826823F070031343A142E6DDD9
:103DF000614505D040F60002C4F20002914203D1B1
:103E0000026923F440731343846923F08002D0F8DD
:103E100004E0C368224361450A60CB62C1F828E030
:103E200002D14269CCF8302001224A6180F8462054
:103E300080F83E2080F83F2080F8402080F8412024
:103E400080F8422080F8432080F8442080F8452004
:103E500080F83D20002010BD10B582B0006840F60B
:103E60000001C4F20001884214D042F60041C4F2BD
:103E70000101884228D141F21800C4F20200016811
:103E8000192441F400610160006800F400600190B1
:103E900001980DE041F21800C4F2020041681E24AE
:103EA00041F004014160406800F004000090009877
:103EB000204600210022FFF745F9204602B0BDE868
:103EC0001040FFF72DB900BF02B010BD90F83D10B3
:103ED00001291CBF01207047022180F83D100068B5
:103EE00040F2FF72C168C4F20002904241F0010149
:103EF000C16009DCB0F1804F12D040F20041C4F241
:103F0000000188420CD012E042F60041C4F20101E7
:103F1000884205D040F60001C4F20001884206D173
:103F2000816801F00701062904BF0020704701687D
:103F300041F00101016000207047000090F83C2032
:103F4000012A4FF0020248D080B580F83D20D0F819
:103F500000C04FF67772DCF8083023EA0202CCF892
:103F600008200B683F2B1DDD5F2B39DD602B5BD0FC
:103F7000B3F5005F00F09880702B26D1D1E901E302
:103F8000C968DCF8082043EA0E0322F47F4243EAC2
:103F900001211143CCF80810DCF8081041F077013A
:103FA00011E000BF1F2B03DC33B1102B04D00CE059
:103FB000202B01D0302B08D1DCF8081021F0700143
:103FC000194341F00701CCF808100121002280F8C4
:103FD0003D1080F83C20BDE880401046704700BF8F
:103FE000402B41D0502BF0D1D1F804E0C968DCF867
:103FF0002030DCF8202022F00102CCF82020DCF870
:10400000182022F0F00242EA011123F00A0242EAEB
:104010000E02CCF81810CCF82020DCF8081041F083
:10402000570121F02001CEE7D1F804E0C968DCF89F
:10403000203023F01003CCF82030DCF81830DCF806
:10404000202023F4704322F0A00243EA013142EA27
:104050000E12CCF81810CCF82020DCF8081041F033
:10406000670121F01001AEE7D1F804E0C968DCF87F
:104070002030DCF8202022F00102CCF82020DCF8EF
:10408000182022F0F00242EA011123F00A0242EA6B
:104090000E02CCF81810CCF82020DCF8081041F003
:1040A000470121F030018EE7D1E901E3C968DCF86E
:1040B000082043EA0E0322F47F4243EA0121114320
:1040C000CCF80810DCF8081041F480417BE70000D0
:1040D0007047000010B5016804460869800744BFB6
:1040E000C8685FEA807039D40869400744BFC8686F
:1040F0005FEA40703ED40869000744BFC8685FEAC1
:10410000007045D40869C00644BFC8685FEAC06053
:104110004AD40869C0071CBFC8685FEAC07051D1A3
:104120000869000644BFC8685FEA006052D40869A5
:10413000400644BFC8685FEA406053D408698006FF
:1041400046BFC8685FEA806010BD6FF0200220465D
:104150000A61BDE81040FFF7C7BD00BF6FF0020065
:104160000861012020778869800743D02046FFF747
:10417000AFFF45E06FF004000861022020778869F6
:1041800010F4407F40D02046FFF7A2FF42E000BF7E
:104190006FF00800086104202077C86980073DD0CF
:1041A0002046FFF795FF3FE06FF010000861082000
:1041B0002077C86910F4407F3AD02046FFF788FF87
:1041C0003CE000BF6FF001000861204600F032FAC9
:1041D0002168A5E76FF0800008612046FFF782FDA7
:1041E0002168A4E76FF040000861204600F046FA1D
:1041F0002168A3E7204600F025F8204600F0AAF940
:104200002168002020776FE7204600F01BF8204649
:1042100000F0A0F92168002020776CE7204600F02C
:1042200011F8204600F096F921680020207769E710
:10423000204600F007F8204600F08CF921680020A5
:10424000207766E77047000090F83C30012B04BFF0
:10425000022070474FEAB202032A00F2EA802DE9F9
:10426000F043DFE802F003A53B7500BF036842F6A8
:1042700000461A6AC4F2010622F001021A621D6A9F
:104280001A465C6852F818CFB3428E68D1F800E045
:1042900025F0020545EA06050CD1CE68D1E905787E
:1042A00024F4407425F00C0526F004063C43354305
:1042B00044EA08042CF0730747EA0E075C609F612C
:1042C0004F6809695F631D629F6947F008079F6136
:1042D0009F6927F004079F61A6E000BF036842F6CC
:1042E00000461A6AC4F2010622F480721A621D6A3C
:1042F0001A46D3F804C052F81CEFB3428E680C681B
:1043000025F4007545EA06250FD1CE68D1E9059858
:10431000360240F2FF4725F44065BE4335432CF496
:10432000405748EA090647EA061C2EF07307274360
:10433000C3F804C0DF614F680969DF631D62DF698C
:1043400047F00807DF61DF6927F00407DF616BE0F2
:10435000036842F600471A6AC4F2010722F4805249
:104360001A621A46D3F820C05D6852F81C4FD1F883
:1043700000E08E68BB4204D14F6925F4804545EAD0
:1043800087152CF4005747EA063724F4E64646EA38
:104390000E265D60DE614E6809691E641F62DF697A
:1043A00047F40067DF61DF6927F48067DF613AE087
:1043B000036842F600461A6AC4F2010622F01002AF
:1043C0001A621D6A1A46D3F804C052F8184FB34255
:1043D0008E68D1F800E025F0200545EA06150FD1DA
:1043E000CE68D1E905986FF0400725F0C00507EACF
:1043F000061635432CF4406748EA090647EA860C5E
:1044000024F4E64444EA0E27C3F804C09F614F68D1
:1044100009699F631D629F6947F400679F619F69F7
:1044200027F480679F610902136819431160BDE892
:10443000F043002180F83C1000207047002804BFA2
:104440000120704710B590F83D1031B9002180F877
:104450003C10044600F068F82046022180F83D1028
:10446000016840F2FF740B68C4F2000442F6004C8D
:10447000A142C4F2010C15DCB1F1804F1AD040F218
:104480000042C4F20002914214D0A14218DCB1F102
:10449000804F1DD040F20042C4F20002914217D07A
:1044A0001AE000BF614505D040F60002C4F20002E8
:1044B0009142EAD1826823F070031343A142E6DD02
:1044C000614505D040F60002C4F20002914203D1DA
:1044D000026923F440731343846923F08002D0F807
:1044E00004E0C368224361450A60CB62C1F828E05A
:1044F00002D14269CCF8302001224A6180F846207E
:1045000080F83E2080F83F2080F8402080F841204D
:1045100080F8422080F8432080F8442080F845202D
:1045200080F83D20002010BD0068B0F1804F18BF1A
:10453000704781B041F21C00C4F20200016841F0F2
:1045400001010160006800F001000090009801B0D6
:104550007047000070470000C1B1042908D0082945
:1045600014BF41224022825C012A05D016E000BF20
:104570003F22825C012A11D10222082910D004298D
:1045800014BF80F8412080F83F200BE090F83E20D7
:10459000012A03D1022280F83E2003E00120704767
:1045A00080F84020006801F01F010122036A8A4060
:1045B00023EA02010162036A42F64441C4F20101A6
:1045C0001A43A1F14403984202620FD040F2FF71F6
:1045D000C4F20001884213DCB0F1804F1CD040F2DD
:1045E0000041C4F20001884216D01CE00A6842F47F
:1045F00000420A6040F2FF71C4F200018842EBDD24
:1046000042F60041C4F20101884205D040F60001A3
:10461000C4F20001884206D1816801F00701062931
:1046200004BF00207047016841F0010101600020D3
:1046300070470000006840F60001C4F200018842A3
:1046400008D042F60041C4F20101884218BF704709
:1046500001F002BE80B540F21C40C2F200000068CA
:104660006FF001010161FDF799F80028BDE8804075
:1046700018BFFDF799B801F007B9000070470000B6
:104680007047000010B501680446486994F83D2061
:10469000212A12D110F080000FD0486920F080004C
:1046A0004861606B10B1FEF7A9F82168C86820F076
:1046B000C000C860202084F83D00486994F83E207E
:1046C000222A1FD110F040001CD0486920F0400081
:1046D0004861A06B10B1FEF791F82168C86820F41A
:1046E0009070C860486920F001004861206B012883
:1046F00003D1C86820F01000C860202084F83E0074
:1047000000202063002010BD70470000B0B582B0CB
:1047100005682968EC686A6901F02F03202B04F012
:10472000200305D123B102B0BDE8B04001F074BF51
:104730005FEA017C1EBF02F0010E04F4907212EBDE
:104740000E0241D1026BCB0618D5012A16D114F006
:10475000100213D00021019129680191696801912B
:1047600001996969490649D4818DC38DC28D002A9A
:1047700018BF994240F0DE8002B0B0BD0A062BD5CA
:1047800014F0800228D090F83D102129F4D18168DE
:10479000B1F5805F03D10169002900F0E980016A69
:1047A0004A1C026209786960C18C01390A04C1841B
:1047B000E2D1E86820F08000E860E86840F040005E
:1047C000E86002B0B0BD00BFCA0718BF14F4807221
:1047D00044D14A0748D44EE04906CDD514F04001F3
:1047E000CAD0E96821F04001E960202180F83D103D
:1047F00002B0BDE8B04000F047BB00BF816B0A6863
:10480000526894B2002CB7D0838D9C42B4D2C2853A
:104810008A69202A1AD0EA68044622F48072EA6083
:104820006A6922F001026A616A6922F040026A61E3
:10483000202280F83E2000220263EA68084622F027
:104840001002EA60FDF7DAFFA38D2046C18D591AE8
:1048500089B202B0BDE8B040FFF712BF026C42F06F
:10486000010202644A0706D5BEF1000F03D0026CB4
:1048700042F0020202648A0706D5BEF1000F03D09F
:10488000026C42F004020264BCF1000F06D55EEA3D
:10489000030203D0026C42F008020264026C002A98
:1048A0003FF46AAF890605D523B1044601F0B4FE92
:1048B000256820466969026C01F0400102F0080297
:1048C00089182FD0E96821F49071E960696921F0B5
:1048D00001016961016B012903D1E96821F010012F
:1048E000E960202180F83E100021016369694906D2
:1048F00038D5696921F040016961816B91B346F255
:104900001152C0F60002044608464A63FDF79AFFBA
:1049100000283FF431AFA06B416B02B0BDE8B0405E
:10492000084700BF0446FFF7EFFE0020206402B0F6
:10493000B0BD00BFEA68C91A22F49072EA606A69E1
:1049400089B222F001026A61202280F83E20002212
:104950000263EA6822F01002EA6002B0BDE8B040EB
:10496000FFF78EBE02B0BDE8B040FFF7CDBE00BF7E
:10497000016A31F8022B6FF35F226A60016213E76C
:10498000002804BF0120704710B5044690F83D0090
:1049900028B9002084F83C00204600F061F824206B
:1049A00084F83D002068D4E90212C36823F4005360
:1049B000C360036923F440531A430261D4E904231A
:1049C0001143C268194341F20C639A431143C16019
:1049D0004169A26921F44071114343F60002C4F217
:1049E00001029042416103D0FEF752FD02E000BF98
:1049F000FEF762FDD4E90023192148439900B0FB7A
:104A0000F1F048F21F5CC5F2EB1CA0FB0C314FF635
:104A10009C734909C0F6FF7301FB0300322303EBCB
:104A20000010A0FB0C03F02000EA531000EB011073
:104A3000C3F34311084490601069202120F4904092
:104A40001061506920F02A005061D06840F4005095
:104A5000D0600020206484F83D1084F83E1010BD22
:104A60002DE9F04385B040F600450446C4F2010547
:104A7000006805F53051002788420497CDE9027798
:104A8000019703D005B0BDE8F08300BF41F21800E4
:104A9000C4F20200016801AE41F480410160016886
:104AA00040F2440801F48041009100990168C4F289
:104AB000020841F0080101600068314600F008007A
:104AC0000090009840200190022002900320049062
:104AD0002846FEF7A1F94FF0800928463146CDE976
:104AE00001970397FEF798F90420C4F201000168CA
:104AF00040F2F02541F0E06141F004010160C2F2B2
:104B0000000510204FF48056C5E900802846C5E90D
:104B10000279C5E90477C5E90676FDF7B9FF0028F3
:104B200018BFFDF711FA65636C6240F2AC2508F11D
:104B30001400C2F200050021C5E900012846C5E9BC
:104B40000219C5E90411C5E90616FDF7A1FF002801
:104B500018BFFDF7F9F9252003210022A5636C6237
:104B6000FEF7F0FA2520FEF7DBFA05B0BDE8F0838A
:104B700090F83E30202B1CBF0220704770B582B0E9
:104B800096460A4600294FF0010118BFBEF1000FFA
:104B900004D102B0BDE870400846704790F83C1060
:104BA000012905D1022102B0BDE8704008467047D6
:104BB000012180F83C100021222301638262A0F8C9
:104BC0002CE0016480F83E300368D0F838C046F22B
:104BD0008954C0F6000446F2D55546F21D56C0F67B
:104BE0000005C0F60006CCF82840CCF83410191D9A
:104BF000044660467346CCF82C50CCF83060FDF784
:104C000081FF0021019120680268019242680192AF
:104C1000019A84F83C10C26842F48072C260426912
:104C200042F001024261426942F04002426102B038
:104C3000BDE87040084670477047000070470000AC
:104C40002DE9F04381B0044690F83D0020280DD1B5
:104C500000294FF0010018BF002A03D101B0BDE8C0
:104C6000F08300BF94F83C00012803D1022001B07A
:104C7000BDE8F083012084F83C000020206421205E
:104C80001D460E4684F83D001746FEF7DBF9A78463
:104C9000E784A1688146B1F5805F03D120690028CF
:104CA00000F0968037460021002084F83C00E28C1A
:104CB0002068002A40D06A1C23D0002D5FD088468F
:104CC0000168090608D4FEF7BDF9A0EB09012068C8
:104CD000A942F5D968E000BF17B117F8011B04E03D
:104CE00038F8021B00276FF35F214160E18C013926
:104CF000E184E18C0029E3D11EE000BF02681206C6
:104D000009D40268120606D4026812065CBF026863
:104D10005FEA0262F2D51FB117F8012B05E000BF70
:104D200031F8022B00276FF35F224260E28C013AD8
:104D3000E284E28C002AE4D1016849060FD49DB3D5
:104D4000691C2AD10168490609D4016849065CBF7B
:104D500001685FEA416102D401684906F2D520206A
:104D600084F83D00002001B0BDE8F08317F8012B66
:104D70004260E28C013AE284E28C002ADCD00268D4
:104D8000120611D5002FF1D131F8022B00276FF355
:104D90005F22EDE700684006E1D4FEF753F9A0EB8F
:104DA00009012068A942F5D9C16821F4D071C16018
:104DB000416921F001014161202084F83D0084F81F
:104DC0003E00002084F83C00032001B0BDE8F083E1
:104DD0000027314668E7000090F83D30202B1CBFCB
:104DE0000220704770B5964600294FF0010218BFA7
:104DF000BEF1000F04D1BDE870401046704700BFFF
:104E000090F83C20012A05D10222BDE870401046EE
:104E1000704700BF012280F83C200022212301625C
:104E2000A0F824E0A0F826E0026480F83D30036892
:104E3000D0F834C046F2E954C0F6000446F21165D9
:104E400046F21D56C0F60005C0F60006CCF8284014
:104E5000CCF834201A1D044660467346CCF82C501A
:104E6000CCF83060FDF74EFE206800226FF0400164
:104E7000016084F83C20416941F080014161BDE856
:104E8000704010467047000040F23C00C2F2000043
:104E9000012101707047000070470000FEE700002C
:104EA00010B540F2EC10C2F200000021C0E9001180
:104EB000C0E9021140F20C0040F60004C2F200000A
:104EC00040F20111C4F20104018020464FF48051E8
:104ED0000022FEF7B1F820464FF400610022BDE841
:104EE0001040FEF7A9B80000F0B581B040F2EC1513
:104EF000C2F200056A6840F6000740F20C06C4F2F0
:104F0000010710440529C2F20006686000F284809F
:104F100000220123DFE801F004071406303100BF4E
:104F200000232AE0032201202880AA7038464FF48B
:104F3000805101220124FEF77FF8347026E000BF83
:104F400040F2011129800021A97031780139DFE890
:104F500001F00395758500BFA968401A652815D32F
:104F600038464FF480510022FEF766F86868A86062
:104F7000022030700AE000BF022300202880AB70BE
:104F800038464FF480510022FEF756F87078032817
:104F90001AD002282ED16868E968401A652838D3EB
:104FA000E878A9780130C2B29142E87038464FF4EF
:104FB000006139D901220124FEF73EF86868747057
:104FC000E86001B0F0BD00BF6868E968401AB0F55C
:104FD0007A7F1ED90020AA78E87038464FF4006125
:104FE000002A18BF0122FEF727F86868E860012050
:104FF0000EE000BF6868E968401A652809D33846A2
:105000004FF400610022FEF717F86868E86002209C
:10501000707001B0F0BD00BF29780129B0D1697866
:1050200001297FF483AF90E70022FEF705F8696855
:1050300003207070E96001B0F0BD00BFA968401A9C
:105040006528A3D338464FF480510022FDF7F4FFC2
:105050006868A8600420307098E700BFA968401A0B
:10506000B0F52F7F92D938464FF4805101220124A8
:10507000FDF7E2FF68683470A86087E7A968401A06
:105080006528FFF483AF38464FF480510122FDF7C5
:10509000D3FF6868A8600320307077E740F2E00033
:1050A000C2F200004088704740F2E000C2F2000007
:1050B0008088704740F2E001C2F2000188607047CA
:1050C0002DE9F04383B040F60004C4F201044FF42C
:1050D000034820464FF400410022ADF80680FDF75A
:1050E000ABFF40F23435C2F200054FF0FF370DF14F
:1050F000060101AA284601230097FEF78BFC2046F3
:105100004FF400410122FDF797FFBDF8040040F283
:10511000E006C2F2000630804FF4044920464FF406
:1051200000410022ADF80A90FDF786FF0DF10A015B
:1051300002AA284601230097FEF76CFC20464FF494
:1051400000410122FDF778FFBDF808203088D1B278
:1051500002EB510505EB910505EBD10505EB1115AA
:1051600005EB5115030205EB911512069BB248BFE2
:1051700001352A1802EB133202EB533202EB933261
:1051800002EBD33202EB500202EB900202EBD002B0
:10519000D20700F0B88020464FF400410022ADF85D
:1051A0000680FDF749FF40F23435C2F200050DF1EB
:1051B000060101AA284601230097FEF72BFC204692
:1051C0004FF400410122FDF737FFBDF804004FF412
:1051D0000041308020460022ADF80A90FDF72CFFF8
:1051E0000DF10A0102AA284601230097FEF712FCDE
:1051F00020464FF400410122FDF71EFFBDF80820B4
:105200003088D1B202EB510707EB910707EBD107CA
:1052100007EB111707EB5117030207EB9117120663
:105220009BB248BF01373A1802EB133202EB5332FC
:1052300002EB933202EBD33202EB500202EB90020C
:1052400002EBD002D2075ED04FF40340ADF8060067
:1052500020464FF400410022FDF7EEFE40F23435C7
:10526000C2F200054FF0FF370DF1060101AA2846F2
:1052700001230097FEF7CEFB20464FF400410122A8
:10528000FDF7DAFEBDF804004FF4004130804FF422
:105290000440ADF80A0020460022FDF7CDFE0DF1D6
:1052A0000A0102AA284601230097FEF7B3FB204615
:1052B0004FF400410122FDF7BFFEBDF80820308801
:1052C000D1B202EB510707EB910707EBD10707EBD0
:1052D000111707EB5117030207EB911712069BB248
:1052E00048BF01373A1802EB133202EB533202EB9C
:1052F000933202EBD33202EB500202EB900202EB4C
:10530000D002D2070ED141EA0020B168C0F38D006F
:105310007080002918BF31F81000B08003B0BDE8DC
:10532000F08300BFB08803B0BDE8F083B0B584B0AF
:1053300040F2102042F20041C2F20000C4F201012A
:10534000002401254FF4602205730475C261C0E991
:10535000001484600561FCF71DFF002818BFFCF7EE
:10536000F3FD0720039040F21020C2F2000001A9D3
:10537000CDE90145FCF752FE002818BFFCF7E4FD1B
:1053800004B0B0BD10B540F2402046F20041C2F278
:105390000000C4F20001042200234FF4803480E8AE
:1053A0000E0000F10C014FF4802C4FF4401E81E8F8
:1053B000085084618383FDF71FF9002808BF10BDE2
:1053C000BDE81040FCF7C0BD80B582B041F21400CA
:1053D000C4F202000168002241F00101016000688E
:1053E000002100F00100019001980B20FDF7AAFEBA
:1053F0000B20FDF795FE0E2003210022FDF7A2FEF3
:105400000E20FDF78DFE0F2003210022FDF79AFEEE
:105410000F2002B0BDE88040FDF782BEF0B585B038
:10542000002641F21800CDE90366CDE90166C4F219
:105430000200016840F6000441F0200101600168AB
:10544000C4F2010401F020010091009901680022DA
:1054500041F004010160016849F63C0501F00401D6
:1054600000910099016841F008010160006849F667
:105470003C0100F00800009000982046FDF7DCFD9C
:105480000195022001AD0127049020462946CDE96F
:105490000276FDF7C1FC41F2040001A9C1C104F587
:1054A00080602946FDF7B8FC05B0F0BD70B540F24C
:1054B000343043F20001C2F20000C4F201014FF4A3
:1054C000827200234FF4006C4FF0020E012480E83A
:1054D0000E5000F114014FF40075102670C10A211E
:1054E000C0E90833C0E90A31FEF7FAF9002808BF1D
:1054F00070BDBDE87040FCF727BD000080B586B0E8
:1055000040F28C3042F600420021C2F20000C4F2A8
:105510000102472342F20F7C4FF0800E0591CDE946
:105520000311CDE90011C0E90023C0E9021CC0E964
:105530000411C0F818E0FEF719FC002818BFFCF7AA
:1055400003FD4FF48050029040F28C30C2F2000014
:1055500002A9FEF7F3FC002818BFFCF7F5FC40F2A7
:105560008C30C2F200006946FEF7C0FB002818BF6D
:10557000FCF7EAFC06B080BD10B590B040F2D43024
:105580000021C2F200004FF0804240F2FF33CDE92B
:105590000811CDE90611CDE90411C0E90021C0E9E7
:1055A000021301618161FEF749FF002818BFFCF773
:1055B000CBFC40F2D430C2F2000008A9FEF796FB03
:1055C000002818BFFCF7C0FC602001900020CDE946
:1055D0000200059040F2D430C2F2000001A9082276
:1055E000FEF732FE002818BFFCF7AEFC40F2D434C0
:1055F000C2F2000401A920460C22FEF725FE002875
:1056000018BFFCF7A1FC21680020B1F1804FCDE963
:105610000E000D900C9001D010B010BD41F218009A
:10562000C4F20200016841F00801016000680CA9A1
:1056300000F008000B900B984FF440600C90022093
:105640000D900F9040F60040C4F20100FDF7E4FB1E
:105650000420C4F2010001684FF6FF42CFF6FF02BA
:10566000114041F0E06141F40071016010B010BDE3
:1056700080B586B040F21C400021C2F2000040F626
:1056800000024FF0310C0591CDE90311CDE9001175
:10569000C4F200024723C0E9021C01618021C0E975
:1056A00000238161FEF762FB002818BFFCF74CFC69
:1056B0004FF48050029040F21C40C2F2000002A958
:1056C000FEF73CFC002818BFFCF73EFC40F21C40F3
:1056D000C2F200006946FEF709FB002818BFFCF77C
:1056E00033FC06B080BD000010B540F28404C2F265
:1056F000000443F60001C4F20101204640F8041FF3
:105700004FF4E13100220C23C0E90112C0E9032269
:10571000C0E90532C261FFF733F9002818BFFCF772
:1057200013FC204650F8041F46F27D73CA68C0F689
:10573000000342F01002CA6040F20151C2F20001BF
:105740004FF480722360BDE81040FFF711BA0000EB
:10575000FEE7000040F2A410C2F200000021C16088
:105760004170704780B540F2A410C2F20000C06AD8
:10577000FAF72EFF0021C4F27A41FAF7EBFE80BD62
:1057800040F2A410C2F200004079704780B540F2A8
:10579000A411C2F200014A691C231268002818BF34
:1057A0001823C858801AFAF713FF0021C4F2487171
:1057B000FAF7D0FE80BD000040F2A410C2F2000053
:1057C000807A704780B540F2A410C2F20000006AEF
:1057D000FAF7FEFE0021C4F24871FAF7BBFE80BD65
:1057E00040F2A411C2F200014869002200280A8098
:1057F0008A70CA600A6108BF704780B540F22C11F8
:10580000C2F200010860FBF70BFE01F0CFF800F0D8
:105810005BFB00F07DFAC820BDE8804000F05ABE76
:1058200040F2A411C2F200014861704740F2A41195
:10583000C2F200014A69926853428342D8BF0346CC
:105840008242B8BF13460B647047000040F2A411B7
:10585000C2F200018871704740F2A411C2F2000147
:105860004A691268104448647047000040F2A4116D
:10587000C2F200014A69D26853428342C8BF7047EE
:105880008242A8BFC8637047F0B581B043F60005F7
:10589000CFF6FF75FFF714FCFFF706FC40F2A417E4
:1058A000C2F20007397859B307F118041ECC05F588
:1058B000C845461A3146AE42B8BF01F54841B6F573
:1058C000C84FC8BFA6F54841C3EB431344F6206652
:1058D00001FB0633114423445A1103F01F0307F15F
:1058E000180CB2F1FF3F8CE807007B6226DD48F21E
:1058F000A060C0F20100824228D2002073E000BF05
:10590000796900230968A1F5C84282424FF000027C
:1059100001F5C84488BF01228442B8BF0123B1F514
:10592000C84FA4BF4FF448451346002B18BF284466
:10593000C7E906000120387001B0F0BD47F66010DD
:10594000CFF6FE70824211D9002260E04DF21F6056
:10595000C0F21300824219D843F64000CFF67060BF
:105960004FF4837302FB0300000D3CE042F6E110AC
:10597000CFF6EC7082421BD34CF2C070C0F28F1095
:105980004FF4837302FB0300021540E049F2BF109D
:10599000C0F2210082421BD842F6E040CFF2DD7017
:1059A000692302FB03004FF4967202EB10501AE0D9
:1059B00046F64160CFF6DE7082421BD34DF22030B6
:1059C000C0F62200692302FB03004FF6D4621AE0FE
:1059D00046F20050CFF62E10342302FB03004FF4A2
:1059E000C37202EB2050B0F5D77FA8BF4FF4D77039
:1059F00015E000BF49F60030C0F2D160342302FB4D
:105A000003004FF67A62CFF6FF7202EB20524FF698
:105A10005260CFF6FF7012F5D77FC8BF10467A7874
:105A20000844B862A2B9F87890B9FBF7B1FE78B132
:105A30003879002800F0128178690021C0E90E1140
:105A40000163C0E91A110166F96200F049FB09E03F
:105A500078690021C0E90E110163C0E91A110166DD
:105A6000F96205E17879B979884203D00120F871AB
:105A7000084679717969FB6BCA6893420CDDFA6359
:105A80003B6C8A6893420FDC52429342B8BF3A643F
:105A9000FA7862B90DE000BF52429342B8BFFA6390
:105AA0003B6C8A689342EFDD3A64FA780AB13A7A3D
:105AB00032B13A790AB17A7A12B1FA79012A25D14A
:105AC0000022C1E90E220A63C1E91A220A66411EB8
:105AD0000629FA71FA607A7019D8DFE801F0050F2B
