:020000040800F2
:10000000680D002005010008CD480008933E000857
:10001000CD440008770E00082D58000800000000AD
:10002000000000000000000000000000814B0008FC
:10003000EF15000800000000CF480008414C000800
:100040001F0100081F0100081F0100081F01000810
:100050001F0100081F0100081F0100081F01000800
:100060001F0100081F0100081F010008A11500085A
:100070001F0100081F010008AD150008B915000890
:100080001F0100081F0100081F010008A9560008F1
:10009000B5560008B10F0008BD0F00081F01000889
:1000A0001F010008194E00081F0100081F01000869
:1000B0001F0100081F010008254E00081F0100084D
:1000C0001F0100081F0100081F0100081F01000890
:1000D0001F0100083D5600081F0100081F0100080D
:1000E0001F0100081F0100081F010008DFF810D0E1
:1000F00000F048FC004800479D5B0008AFF300801B
:10010000680D00200648804706480047FEE7FEE7E6
:10011000FEE7FEE7FEE7FEE7FEE7FEE7FEE7FEE7B7
:10012000BB4C0008ED000008202A04DB203A21FA2D
:1001300002F00021704721FA02F3D040C2F1200200
:100140009140084319467047D2B201E000F8012BF4
:10015000491EFBD270470022F6E710B513460A4647
:1001600004461946FFF7F0FF204610BD421C10F868
:10017000011B0029FBD1801A704700000FB400B5A5
:100180008DB010A909900B9000914FF0FF300A90AC
:1001900000200C9005480690054807906A4609A87B
:1001A0000F9900F081FA0DB05DF814FBC506000848
:1001B000E30600082DE9FF4F087883B09946FF2831
:1001C00005D0491C2D2804D00024002008E0002080
:1001D0000BE00124F9E700EB800003EB4000491C31
:1001E0000B78FF2BF7D104B140420023029314781F
:1001F00019461D462D2C01D02B2C04D1521C2D2C20
:1002000013D000240294AA461478FF2C0FD00A259C
:10021000A3FB057801FB05814FF0000C03FB0C11DB
:10022000521CE3194AEB0101EEE70124EAE781449D
:1002300053EA010002D019F5C87F06DA03980021BD
:10024000C0E9001107B0BDE8F08F0025AE4E2F4683
:10025000DFF8B882184600F06DFBCDE90001B9F176
:10026000000002DAC9F1000400E004460023A74AB6
:100270001AEB030B42EB045A12E0E00707D02A46C0
:1002800033463846414600F074FA074688462A4607
:1002900033461046194600F06CFA05460E466410C7
:1002A000002CEAD1DDE90001B9F1000F5A465346AE
:1002B00006DA00F0D0FA3A46434600F0CCFA05E000
:1002C00000F057FA3A46434600F053FA029A0AB150
:1002D00081F00041039AC2E90001B3E72DE9FF4F25
:1002E0001F468DB0D7E901464FF0FF382E20454616
:1002F0004FF000090B90B9696D1C0E988847396A58
:10030000824688470028F6D1BAF1FF3F0AD024F48C
:10031000D064002E11DDBAF12B0F08D0BAF12D0FE9
:100320000BD102E0404611B08DE744F48064B96916
:100330006D1C0E9888478246761E6946600501D579
:100340002D2000E02B208DF8000001F1010B0DF1B4
:10035000200809E0B9696D1C0E98884782460F98FD
:1003600044F40074761E0560002E02DDBAF1300FF1
:10037000F0D00B998A453ED144F0800406E00F99F5
:10038000681CA9F1010944F400740860B9696D1C86
:10039000761E0E98884782463028F0D02BE00B99C5
:1003A0008A4505D1200603D444F08004761E18E067
:1003B000504605F0C4FA08B30DF11301761E44F45B
:1003C00000748B4508D2AAF130000BF8010B20060F
:1003D00007D5A9F1010003E0200602D409F10100CC
:1003E0008146A00502D50F99681C0860B9696D1C8B
:1003F0000E9888478246002ED1DC53E0002E51DD56
:10040000BAF1650F02D0BAF1450F4BD1A00549D51D
:10041000B9696D1C24F44074761E0E988847824694
:10042000002E0CDD2B2804D0BAF12D0F07D144F497
:100430008074B9696D1C0E9888478246761EE00567
:1004400001D52D2100E02B2108F8011BCDF82C80CF
:1004500021E00DF12901761E44F4007488450CD288
:10046000AAF1300010F0FF0088F8000002D10B99CB
:10047000884509D908F1010806E0E00501D52448BE
:1004800001E042F20F708146B9696D1C0E988847F1
:1004900082460F980560002E04DD504605F04FFAA5
:1004A0000028D6D1F9690E988847FF208BF8000004
:1004B00088F800000020069007904B466A4608A97D
:1004C00006A8FFF777FEA00502D46FF001002AE727
:1004D00014F0240F0AD0E00714D1DDE906123868C1
:1004E000031D3B600068C0E900120BE0DDE9060176
:1004F00000F02CFA0146E00704D13868021D3A608A
:100500000068016028460EE7000014400000F03F3C
:10051000F1D8FFFF80EA010210B502F0004340006D
:1005200022D04A001FD0010E01EB1261C0F3560029
:10053000C2F3560240F4000042F40002A0FB022085
:1005400000047F39140400D0401C50EA124001D44A
:100550004000491EC2B20C0604EBD010401C4008FB
:10056000802A02D003E0002010BD20F00100002905
:1005700000DA0020184310BD30B480EA010202F016
:10058000004530F0004221F0004013D090B1C30D7F
:10059000D40DC2F31601C0F31600E41A41F40001B1
:1005A00040F400027D34914201D3641C00E0490014
:1005B000002C02DA30BC002070474FF4000000230A
:1005C000914201D3891A034340084FEA4101F7D110
:1005D00051B1914202D14FF0004105E002D24FF0FB
:1005E000010101E06FF0010103EBC450284430BC6D
:1005F00000F088B8C10F80EAE0700844CA0796236B
:10060000002100F088B800F0004220F00040C10D49
:10061000C0F3160040F400007F2901DA0020704783
:10062000962903DCC1F19601C84001E09639884063
:10063000002AF4D0404270472DE9F05F05460020C3
:1006400092469B4688460646814640241BE0284643
:10065000414647462246FFF767FD53465A46C01AB1
:10066000914110D311461846224600F09DF92D1AEB
:1006700067EB01084F4622460120002100F094F963
:1006800017EB00094E41201EA4F10104DFDC4846AF
:1006900031462A464346BDE8F09F000002681144F7
:1006A0001378016018467047D160044951610449CC
:1006B000116200211161114600F08AB99D060008FF
:1006C000C7090008426842B1016811F8013B23B133
:1006D000521EC0E90012184670470121C160881EF1
:1006E000704742685AB1C368016843B983688B4256
:1006F00005D0491E521CC0E90012002070474FF07F
:10070000FF3070470029A8BF7047401C490008BF50
:1007100020F00100704710B4B0FA80FC00FA0CF031
:1007200050EA010404BF10BC704749B1CCF1200469
:1007300021FA04F411FA0CF118BF012121430843F6
:10074000A3EB0C01CB1D4FEA00614FEA102042BF22
:10075000002010BC704700EBC35010440029A4BF18
:1007600010BC7047401C490008BF20F0010010BCBD
:1007700070472DE9FE4F81EA030404F0004421F0A4
:10078000004100944FF0000B23F0004350EA0104B5
:100790005ED052EA03045BD0C3F30A54C1F30A5596
:1007A0002C44A4F2F3340194A0FB0254C1F31301CE
:1007B00041F48011C3F3130343F4801301FB02449B
:1007C00000FB034E840A970A44EA815447EA8357A0
:1007D000A4FB076802958D0A05FB07854FEA932C59
:1007E00004FB0C542705029D4FEA065847EA1637CA
:1007F000B5EB08056EEB070C870E920E47EA8117E2
:1008000042EA8312A7FB0201B6EB0B0164EB000482
:100810002B0D43EA0C335E1844EB1C50DA4651466C
:10082000E7FB0201C5F313044FEA0B3343EA145309
:100830004FEA0432019C43EA0603A4F10C0402943B
:10084000009CCDE900B400F06AFA03B0BDE8F08F77
:1008500000200146F9E72DE9F04D81EA030404F098
:10086000004B21F0004514464FF0000A23F00041F0
:1008700050EA050220D054EA01021DD0C5F30A5700
:100880000246C5F31303C1F31300C1F30A5640F443
:10089000801543F48013A7EB0608101BD64608F218
:1008A000FD3873EB050002D308F1010801E092184E
:1008B0005B41B8F1000F03DA00200146BDE8F08D7E
:1008C00000204FF48011064684460EE0171B73EBA0
:1008D000050705D3121B63EB050306434CEA010C25
:1008E00049084FEA300092185B4150EA0107EDD108
:1008F00052EA030012D082EA040083EA05010843A9
:1009000005D0101BAB4106D20122002306E00022D5
:100910004FF0004302E06FF0010253101AEB0600A3
:100920004CEB085110EB0A0041EB0B01BDE8F04D18
:1009300000F0E6B90EB540F2334202920022CDE952
:100940000022134600F0EBF903B000BD01F00043B4
:1009500030B421F0004150EA010206D00A0DA2F5A0
:100960006072C1F31301002A02DC30BC0020704722
:10097000440F44EAC104C100E01830BC00EBC2508F
:10098000FFF7C0BE064C074D06E0E06840F00103EB
:1009900094E8070098471034AC42F6D3FFF7AAFB5F
:1009A0007465000894650008202A04DB203A00FAE8
:1009B00002F1002070479140C2F1200320FA03F3B6
:1009C000194390407047C0B24FF4F05100F0F6B9AF
:1009D0002DE9F34F8BB04FF0000801F10C000C46ED
:1009E0004FF0010B46460DF1080A019062690121A2
:1009F00001989047051E2DD0252D2CD0216A8847BF
:100A0000C0B16269012101989047216A8847002896
:100A1000F7D1411E62690198904700E0761CA169F8
:100A20000B988847216A88470028F7D1E1690B981D
:100A30008847DBE7A1690B9888470746A84201D1A0
:100A4000761CD3E7E1690B9888477F1C02D1B8F187
:100A5000000F6FD047E1002762693D463946019893
:100A600090472A2804D16269012101989047012505
:100A7000DFF888926269012101989047A0F1300166
:100A80000A290AD24F45E5DC07EB870100EB410755
:100A9000303FDFD445F01005ECE7E90601D46FF0F4
:100AA00000476C280AD04C2814D0682815D06A2832
:100AB0000DD074281CD07A281AD01DE0626901215B
:100AC000019890476C2802D045F0040514E045F0E9
:100AD00002050DE045F020050AE062690121019858
:100AE0009047682802D045F0080505E045F4006508
:100AF0006269012101989047C4E9015765283DD0FA
:100B000019DC58287AD00CDC452837D004DC25289D
:100B100026D0412831D131E046282FD047282CD18A
:100B20002CE05B2877D0612828D063287CD064280B
:100B300023D15AE0D1E06F2848D008DC66281DD0C8
:100B400067281BD0692821D06E2816D127E070288D
:100B500045D0732868D0752847D078280DD14DE04E
:100B6000A1690B988847054625283FF469AFE169DC
:100B70000B9888476D1C3FF46AAFB4E023466A4681
:100B80006FF001000B99FFF7A9FB9FE045F04000D3
:100B90006060A80723464FF0000236D43EE0E80725
:100BA0007FF447AF2068011D21600068290501D549
:100BB00006701BE7290701D5068017E7A90703D5AB
:100BC000F117C0E9006111E706600FE745F040004A
:100BD0006060A80723464FF0080216D41EE040F6D6
:100BE0000E0125EA0100606016E045F040006060FB
:100BF000A80723464FF00A0207D40FE045F0400053
:100C00006060A80708D5234610226FF001000B99F9
:100C1000AFF300805AE007E0234610226FF0010096
:100C20000B99AFF3008051E04FF000094F464B465F
:100C3000632802D05B2807D041E02079C00601D4A8
:100C40000120A06001273AE06269012101989047E4
:100C50005E2805D14FF00109626949460198904725
:100C6000216939B900210A46534643F82120491C1D
:100C70000829FADBB0B3216969B9C11700EBD16269
:100C800053110AEB830122F01F02821A01200B6824
:100C9000904003430B6062690121019890475D28F1
:100CA000E8D1B9F1000F09D00020514651F82020B9
:100CB000D24341F82020401C0828F7DB02AB224633
:100CC00000976FF001000B99AFF3008000280CDA59
:100CD000401C08D1BBF1000F05D04FF0FF300DB024
:100CE000BDE8F08FFFE74046F9E7E90701D108F1D9
:100CF000010806444FF0000B78E60000CCCCCC0C89
:100D000010B5141E73F1000408DA401C41F1000113
:100D100092185B411A4301D120F0010010BD2DE96A
:100D2000F04D92469B4611B1B1FA81F202E0B0FA61
:100D300080F220329046FFF737FE04460F4640EA25
:100D40000A0041EA0B0153465A46084313D01146A4
:100D500053EA010019D0C8F140025046FFF7E4F908
:100D600005460E46504659464246FFF71DFE0843CB
:100D700005D0012004E020463946BDE8F08D002072
:100D8000054346EAE0762C4337430A986305E40AB4
:100D9000A0EB08000022FD0A44EA47540A3002D5BD
:100DA00000200146E9E7010510196941DDE9084520
:100DB00000196941BDE8F04DA2E700007F2801D984
:100DC000002208E0064A02EB5002C007127800D168
:100DD000120902F00F020120904008407047000005
:100DE0003265000830B58C1810F8012B12F00F0393
:100DF00001D110F8013B120906D110F8012B03E0D4
:100E000010F8015B01F8015B5B1EF9D101E001F80C
:100E1000013B521EFBD1A142E6D3002030BD0000B1
:100E200070B5044600688168C943C90717D1816855
:100E300021F00101816001F037FD05460AE000BFA5
:100E400001F032FD401B022804D920688068C043AD
:100E5000C00706D020688068C043C007F0D00020DB
:100E600070BDA06A40F01000A062E06A40F001008E
:100E7000E062012070BDFEE7411E022906D204494E
:100E80000A5C1AB100220A54012070470020704702
:100E900037000020411E022906D204490A5C1AB11B
:100EA00000220A5401207047002070473A000020B9
:100EB0002DE9F0470D4E0124DFF834800025A6F11E
:100EC0000907A6F10609A6F1030AE0B203F0D6FD70
:100ED00030553D5548F8245009F804500AF804509C
:100EE000641C022CF1DDBDE8F08700003D0000200D
:100EF0001806002010B5094A012802D0022803D0A4
:100F000007E04FF4805100E00421104601F0C2FCDC
:100F100008B1002010BD012010BD0000000C0140F0
:100F20002DE9F05F01F0C0FC1F4F012405464FF092
:100F30000009A24607F1030B07F1060807F10906AD
:100F4000E0B203F09BFD315D50B159B9174907F884
:100F500004A041F824500BF8049008F8049010E025
:100F6000012903D0395D012908D016E007F8049063
:100F700018F8041089B90BF804A00EE018F8041052
:100F800059B90A4940F6B83251F82410691A914209
:100F900003D308F804A00BF804903055641C022C0D
:100FA000CEDDBDE8F09F00003400002018060020D0
:100FB000014800F042BF0000D0020020014800F0CC
:100FC0003CBF0000D0020020084910B5CA680C6977
:100FD000104444F6206290FBF2F323440B6190FB33
:100FE000F2F302FB1300C86010BD0000AC0000204B
:100FF000074A011ED0641046C36A02DD03F5807300
:1010000002E001DAA3F580731846936403F066BE2C
:1010100048010020244A30B4D36AC31AD06843651B
:10102000126A891AC9114FF448628165934202DC41
:101030005242934200DA42654FF47A62914202DCF6
:101040005242914200DA8265436C416D4B43C36565
:10105000C26C856D4A43816C01FB0521826E11448F
:10106000CA11A1EBC211C0E91A12016E0A4402664C
:1010700081688C02B2EB812F02DC6442A24200DA6A
:101080000466026D6A434266046E23441A44921257
:1010900002678A4202DC49428A4200DA0167006F35
:1010A00030BCFFF7A5BF000048010020F0B41E4A85
:1010B000D1684E6A8E62126A801A4FF480124862BA
:1010C000904202DC5242904200DA4A628D694B6AD9
:1010D0005D43CD62CA69886B02FB03008212A0EBFC
:1010E0008220C1E90E02086B02440A638868840208
:1010F000B2EB802F02DC6442A24200DA0C639A1B3E
:101100000B6A5A434A630B6B2B441A4492120A64CB
:10111000824204DC4042824201DB086C00E0086449
:10112000F0BCFFF765BF000048010020084910B57A
:101130008A6BCC6B104444F6206290FBF2F323449C
:10114000CB6390FBF2F302FB1300886310BD000039
:10115000AC000020084910B54A688C68104444F679
:10116000206290FBF2F323448B6090FBF2F302FBCE
:101170001300486010BD00002C010020084910B584
:10118000CA690C6A104444F6206290FBF2F32344CF
:101190000B6290FBF2F302FB1300C86110BD00006C
:1011A000AC0000202DE9F05F574C00274FF05109AB
:1011B00038464FF48048A4F5C97500BF35F81030A3
:1011C00034F81020991A1A444FEA620200D54942B5
:1011D0004346B1EB680F07DDB2F5005F02DBA2F515
:1011E000005201E002F5005225F81020401CC928E9
:1011F000E4DBB5F88E1128881A4600F0C5F9434C97
:101200004FF0010A002803D009DD4FF0010007E08C
:10121000C4F808A0BDE8F05F3DA004F04DBB00207D
:10122000A07009EB490001264FF0020B00EBD078CB
:1012300005EB46004FF4804230F8021C35F81600EA
:1012400000F0A2F9002801DB014600E04142B1EBC9
:10125000680F04DD314634A0C4F808B049E0002826
:1012600001DB024600E0424209EBD971B2EB610FAB
:1012700004DA314634A0C4F808B03AE0002803D0BC
:1012800007DD4FF0010006E0314637A0C4F808A0A2
:101290002FE04FF00000A178884204D0314639A0F9
:1012A000C4F808A025E0761CC82EC1DBD4E90502ED
:1012B00000214FF4405C4FF4805843F6FF7900BFA3
:1012C00005EB410635F811307688634505DD464566
:1012D00003DA0846A9EB03027F1C491CC829EFDB8F
:1012E000C4E905020146012F07D00320A06039465A
:1012F0002DA0BDE8F05F04F0DFBA0020A060BDE8DB
:10130000F05F31A004F0D8BAD60700208800002092
:101310004572726F723A20446972656374696F6EC8
:10132000207A65726F0D0A004572726F723A20431F
:101330006F6E74696E75697479206C617267652C63
:1013400020693D25640D0A004572726F723A204390
:101350006F6E74696E7569747920736D616C6C2C35
:1013600020693D25640D0A004572726F723A205A59
:1013700065726F2064656C74612C20693D25640D75
:101380000A0000004572726F723A20446972656308
:1013900074696F6E206D69736D617463682C206968
:1013A0003D25640D0A0000004572726F723A2050AC
:1013B0006861736520737465702C206E756D3D25B2
:1013C0006C750D0A00000000436865636B4461742E
:1013D0006120504153532C207263645F783D256C2B
:1013E000642C207263645F793D256C640D0A0000F3
:1013F00004490020C9688863C86308638866C866B2
:10140000086670474801002070B52549254A264CDA
:101410004B4255426642002821DA884201DD002015
:1014200070BD904205DD18444FF4837148430015A8
:101430000FE0A04206DD2844C0EB0010C0EBC00066
:101440001A4904E030443421484318495A3901EB21
:101450002050164982398842E2DA084670BD984227
:10146000DDDBA84205DA08444FF4837148430015D8
:1014700010E0B04207DA1044C0EB0010C0EBC0002F
:101480004FF4967104E02044342148434FF4C37173
:1014900001EB20504FF4D7718842DEDC70BD0000B4
:1014A0006079FEFFE029ECFF406EDEFFD4FEFFFF17
:1014B00070B5184C064600252169421A2046002ABC
:1014C000806808D00FDD002907DBFFF77DFD20696C
:1014D000B04212DA1BE0266119E0FFF775FD2069C2
:1014E000002812DA13E00B4880684042002907DC2C
:1014F000FFF76AFD2069B04209DCC4E9035606E043
:10150000FFF762FD2069002801DCE56025612069A4
:10151000606170BDAC00002002484168496981608B
:1015200070470000AC00002002490022C1E90320FE
:1015300070470000AC000020F0B50588012453106E
:10154000AE46C3F1000C0EE030F81430A3EB0E07EA
:101550001E46B7EB620F00DDB31ABC4500DDB318C1
:10156000641C1D44A4B28C42EED395FBF1F000281C
:1015700000DA1044904200DD801AF0BD0844B0FB50
:10158000F1F201FB12007047401AB0EB620F00DD70
:10159000801A51104942814200DD1044704700001A
:1015A000014800F0B3BE00008C020020014800F0AA
:1015B000ADBE00006C050020014800F0A7BE000091
:1015C000B005002030B590F840500124AC40C56B08
:1015D0006C60046863604368102B036803D09960F3
:1015E0000068C26030BD9A600068C16030BD70475D
:1015F00010B58318B3F5806F08D8054B034400205D
:1016000002E01C5C0C54401C9042FAD310BD000058
:1016100000FC00082DE9F0411446054620440F4621
:10162000B0F5806F1AD80E4E307820B90D4803F00F
:10163000AFFA012030700B4803F0A3FA0A482918CA
:10164000084803F0D1FA641C62083946054803F0E3
:10165000D5FABDE8F041034803F0C4BABDE8F08113
:10166000780000206800002000FC0008064A106A8C
:101670000188A1F57F43FF3B05D0002903D001215C
:10168000517002F0FFBC704788000020014840788C
:101690007047000088000020014800787047000073
:1016A000880000202DE9F04702F012FDDFF8748178
:1016B0004FF448450024D8F80C006F005A4E4FF400
:1016C000FA694FF4804A072823D2DFE800F00413B8
:1016D00024576674A40098F80000002819D04946E1
:1016E000D8F8100003F0FAFAC8F81050A8F804402F
:1016F000012040E0D8F810004946801CC8F81000CE
:1017000003F0ECFAD8F81000B84202D10220C8E980
:101710000305BDE8F087D8F8100010F0FF0F1DD1C9
:1017200002F0A4FCB8F8041026F81100491C88B295
:10173000A8F80400102814D1D8F810005246A0F5DB
:101740004840050A10213848FFF7F6FE3649203197
:1017500021F81500A8F80440D8F81000401CC8F87B
:1017600010004946D8F8100003F0B8FAD8F8100075
:10177000B842CED90320C8F80C00CAE7D8F8100048
:101780004946401CC8F8100003F0A8FAD8F8100029
:10179000B0F5D23FBDD10420EDE7D8F8100049469E
:1017A000401EC8F8100003F099FAD8F81000B842AB
:1017B000AFD10520DFE7D8F8100010F0FF0F1CD1E3
:1017C00002F054FCB8F8041026F81100491C88B245
:1017D000A8F80400102813D1D8F810005246A0F53C
:1017E0004840060A10211048FFF7A6FE0F4921F8CD
:1017F0001600A8F80440D8F81000401EC8F81000E1
:101800004946D8F8100003F069FAD8F81000A84249
:10181000B3D20620AFE7BDE8F0470021084603F049
:101820005DBA00008800002024060020D6070020B2
:1018300010B5114CE06806281DD103F0DDFAFFF762
:10184000B1FCA06808B900F0D9F80020E060207071
:10185000A06800280FD1094883884288018808A021
:1018600004F02AF8206A01880FA004F025F8BDE8EA
:10187000104001F0B7B810BD88000020007C0008BF
:10188000466C61736820636865636B3A205B305D0A
:101890003D25752C205B315D3D25752C205B325D2F
:1018A0003D25750D0A00000063616C695F7461621B
:1018B0006C6520636865636B3A205B305D3D257520
:1018C0000D0A0000064841780278114306D1012133
:1018D00001700021C160816001618180704700005A
:1018E0008800002072B6FEE706490020C86106485D
:1018F000016941F004010161016941F040010161A8
:1019000070470000F805002000200240064A002130
:10191000D16106490A6942F002020A614861086918
:1019200040F0400008617047F805002000200240A8
:10193000044B0022DA61044A136943F00103136186
:1019400001807047F8050020002002401448002262
:10195000C168CB06134904D5CA6942F00202CA61C4
:101960001022C3685B0705D5CB6943F00103CB6147
:1019700042F00402C369DB0707D0CB6943F00403DC
:10198000CB61C16921F00101C161A2F5807101390A
:1019900001D0C2607047C16921F00101C161704787
:1019A00000200240F805002070B5054600F07CFFDD
:1019B0000646114C09E0681C07D025B100F074FF01
:1019C000801BA84201D9032070BDE068C007F2D196
:1019D000E068800601D52020E060E068C00605D4FC
:1019E000E069C00702D1E068400703D5FFF7AEFF0A
:1019F000012070BD002070BD002002402DE9F84F8D
:101A0000514E00203446F061504803F0C1F84F4871
:101A100003F0B7F8A078746900284FF4804A4FF4B7
:101A2000484B304636D13AE0C8212046FFF7A6FDA4
:101A3000474DC82135F81070601CFFF79FFD35F841
:101A4000100052463946FFF79FFD074670698442F1
:101A500001D1B56900E00025C830844202D1D6F832
:101A6000188014E0B84612E0280290FBF7F000EB73
:101A700004205946FFF782FDADF8000001226946B7
:101A8000324803F0BBF8F169491C6D1CF161454512
:101A9000EADB641C7069C9308442C5DB3FE0C834AE
:101AA00039E0C821601CFFF769FD294DC82135F8D0
:101AB00010702046FFF762FD35F810005246394697
:101AC000FFF762FD0746706900F1C8018C4201D141
:101AD000B56900E00025844202D1D6F8188000E004
:101AE000B846200200F5807912E0280290FBF7F159
:101AF000A9EB01005946FFF741FDADF800000122B6
:101B00006946124803F07AF8F169491C6D1CF161CD
:101B10004545EADB641E7069401E8442C1DC0B4807
:101B200003F060F8306A3446F169028809A003F0D6
:101B3000C3FEE069504503D101206070BDE8F88F15
:101B40000420A060FAE70000880000205800002070
:101B50004406002047656E65726174655461626C6D
:101B60006520646F6E652C20726573756C745F6E92
:101B7000756D3D256C752C2063616C695F746162C5
:101B80006C655B305D3D25750D0A0000F8B50024DD
:101B9000009490F824202546012A12D0012280F8D2
:101BA00024204A681F23072A0DD20668776B521E2D
:101BB00002EB820293409F430B6893401F4377637D
:101BC00019E00220F8BD06680D2A0AD2376BD21F31
:101BD00002EB820293409F430B6893401F4337639D
:101BE00009E0F76A0D3A02EB820293409F430B68CB
:101BF00093401F43F7620A68072306680A2A0AD33C
:101C0000F7680A3A02EB420293409F438B68934085
:101C10001F43F76008E0376902EB420293409F439D
:101C20008B6893401F4337610A68102A01D0112A3C
:101C300020D1124B02689A4217D193681B0219D423
:101C4000936843F4000393600968102912D10C498A
:101C50000C4A0968B1FBF2F101EB8101490000E097
:101C6000491E00910029FBD104E0816A41F0200166
:101C70008162012480F824502046F8BD00240140F0
:101C80001C00002040420F002DE9F0414FF00007FA
:101C900004003D467ED0A06A002628B9E66284F89A
:101CA0002460204600F07EF82046FFF7B9F8A16ACC
:101CB000C90600D420B1A06A40F01000A06269E01B
:101CC000A16A21F4885141F00201A1626268E169D0
:101CD000237B0A4347EA43010A43A1684FF4807714
:101CE000B94209D0012907D05FF0000194F814C06F
:101CF000BCF1010F02D00AE03946F7E7F3B1A36A5D
:101D000043F02003A362E36A43F00103E362236824
:101D1000D3F804C02CF4694C4CEA010CC3F804C09D
:101D200021688B68DFF870C003EA0C0313438B60F3
:101D3000A168B9420BD0012909D00CE0DFF85CC0E2
:101D4000A3690CEB43330B4343F40061DFE7218AC3
:101D50000D05A5F580152168CB6A23F470032B438C
:101D6000CB62216889680E4B1940914208D1E66226
:101D7000A16A21F0020141F00101A162BDE8F081F8
:101D8000A06A20F0020040F01000A062E06A40F07B
:101D90000100E0620120F1E7FDF7E1FF00E0FFFF55
:101DA000FE0E1FFF70B586B0002605460096019610
:101DB0000296039600681B49884230D11A49886907
:101DC00040F400708861886900F4007004908869AC
:101DD00040F0040088618869694600F004000490BE
:101DE0000120009003200190104800F063FC114C8A
:101DF0000F48C4E900068020C4E902604000206169
:101E0000800060612020A0614FF44050E0612046D6
:101E100000F026FB08B1FFF765FD2C62656206B095
:101E200070BD000000240140001002400008014085
:101E3000080002408C02002070472DE9F05F054643
:101E4000006800244669D0F804908768D0F80CB088
:101E5000D0F810A0D0F81880F10748D0F90714D0B6
:101E600001218160B80703D5284600F0D9F90CE0BC
:101E7000780702D54FF4006407E0380702D54FF425
:101E8000805402E0284600F0CAF9F80516D5296802
:101E90004FF480708860B80503D5284600F0C2F979
:101EA0000CE0780502D544F4005407E0380502D56B
:101EB00044F4804402E0284600F0B3F9F80316D554
:101EC00029684FF480308860B80303D5284600F0B5
:101ED000ABF90CE0780302D544F4004407E0380382
:101EE00002D544F4803402E0284600F09CF9300723
:101EF00007D55FEACB6004D52968102044F400744C
:101F0000C86070074FF0080707D55FEA0B7004D56B
:101F10002868C760284600F07DF9B00706D5286814
:101F2000C068800702D0284600F075F9700607D512
:101F30005FEACA6004D52968102044F4806408610F
:101F4000B00607D55FEA0A7004D5286807612846FD
:101F500000F062F9F00606D528680069800702D013
:101F6000284600F05AF9B00308D55FEAC96005D5E4
:101F7000296810204860284600F050F9F00307D582
:101F80005FEA097004D528684760284600F04DF9DB
:101F9000300446D55FEA497040D5F00504D55FEAC4
:101FA000C87001D044F00104B00504D55FEA887020
:101FB00001D544F00204700504D55FEA487001D5EC
:101FC00044F00404300529D518F0700F26D008F02D
:101FD0007000402815D006DC102809D020280AD02F
:101FE000302816D10AE050280ED0602811D10EE01A
:101FF00044F008040DE044F010040AE044F020042A
:1020000007E044F0400404E044F0800401E044F4BC
:1020100080742868816921F0700181612968042039
:102020004860002C05D0686A204368622846FFF7A4
:1020300003FFBDE8F09F70B5040003D094F82000C2
:1020400010B104E0012070BD204600F081F8206846
:10205000016841F00101016000F026FC05460526FB
:1020600004E000F021FC401B0A2811D820684068D9
:10207000C007F6D02068016821F00201016000F07D
:1020800013FC05460BE000F00FFC401B0A2806D9A4
:10209000606A40F40030606284F82060D2E7206813
:1020A00040688007EFD4207E0128206801683DD079
:1020B00021F080010160607E01282068016838D02D
:1020C00021F040010160A07E01282068016833D022
:1020D00021F020010160E07E0128206801682ED0F7
:1020E00041F010010160207F01282068016829D09B
:1020F00021F008010160607F01282068016824D078
:1021000021F004010160D4E902010843D4E904127A
:10211000114308436168491E08432168C8610020D3
:102120006062012084F82000002070BD41F0800131
:10213000C0E741F04001C5E741F02001CAE721F0C6
:102140001001CFE741F00801D4E741F00401D9E7DD
:1021500010B586B0002100910191029103910068B1
:10216000284988424BD12848C16941F00071C161BA
:10217000C16901F000710491816941F00801816138
:102180008069224C00F0080004904FF480700090A9
:102190006946204600F08EFA6015009002200190FA
:1021A000032003906946204600F084FA18484168ED
:1021B00021F4C04141F0E06141F4804141600022DE
:1021C0000321132000F0DCFB132000F0CBFB0022E6
:1021D0000321142000F0D4FB142000F0C3FB0022E4
:1021E0000321152000F0CCFB152000F0BBFB0022E2
:1021F0000321162000F0C4FB162000F0B3FB06B04C
:1022000010BD00000064004000100240000C0140BE
:102210000000014070477047704770477047704733
:1022200070477047704770477047704710B590F817
:1022300021100022022905D00421816380F820208A
:10224000012010BD01680B6823F00E030B600168CC
:102250000B6823F001030B6090F84030C46B012140
:1022600001FA03F3636080F8211080F82020104603
:1022700010BD000010B590F821100024022903D0F1
:102280000421816301243DE001680A6822F00E0206
:102290000A6001680A6822F001020A601A4A0168AD
:1022A000914201D1012121E0174A1432914201D11A
:1022B00010211BE0144A2832914201D1891515E002
:1022C000114A3C32914201D189140FE00E4A50323A
:1022D000914202D14FF4803108E00B4A64329142BE
:1022E00002D14FF4801101E04FF08071064A083AA4
:1022F0005160012180F82110002180F82010416BED
:1023000001B18847204610BD080002402DE9F05F6A
:10231000C16B0C6801680B68D0F840C0042202FA57
:102320000CF2494DDFF824A1494E4A4FDFF828B19D
:10233000DFF828E122422CD05A072AD50A689206F3
:1023400003D40A6822F004020A600168A94201D19C
:10235000042219E0514501D1402215E0B14202D1D9
:102360004FF4806210E0B94202D14FF480420BE09A
:10237000594502D14FF4802206E0714502D14FF455
:10238000800201E04FF080622F4908394A60C16A3B
:102390003BE04FF0020808FA0CF818EA040F4FF07F
:1023A00000094FF0010235D05FEA837832D50B681F
:1023B0009B0605D40B6823F00A030B6080F82120EC
:1023C0000168A94201D1022219E0514501D1202220
:1023D00015E0B14202D14FF4007210E0B94202D1CF
:1023E0004FF400520BE0594502D14FF4003206E0A1
:1023F000714502D14FF4001201E04FF00072124912
:1024000008394A6080F82090816A00291AD0BDE816
:10241000F05F0847082505FA0CF5254212D01B0786
:1024200010D50B6823F00E030B6090F84010C36BBF
:1024300002FA01F15960826380F8212080F820902F
:10244000016BE2E7BDE8F09F080002401C0002407B
:102450003000024044000240580002406C0002403C
:1024600030B528B308C8134914221944B1FBF2F15E
:102470008900C16310498163022141771A6843F6DC
:10248000F0718A43D0E900142143D0E902452C437E
:102490002143046921434469214384692143114351
:1024A000196000214163012242770177084630BD5F
:1024B000012030BDF8FFFDBF0000024070B50446AA
:1024C00090F82000002501280CD0012084F820007D
:1024D00094F821600020012E06D084F82000022507
:1024E000284670BD022070BD022684F82160A063DA
:1024F0002068066826F0010606602046FFF762F8AD
:10250000E06A00282068016802D041F00E0106E070
:1025100021F0040101602068016841F00A010160B6
:102520002068016841F001010160D9E770B50446F7
:1025300000F0BAF90546601C02D004480078044453
:1025400000F0B2F9401BA042FAD370BD1000002089
:102550002DE9F047054626480F460126017E012950
:102560000FD00121814601762868DFF888804CF27F
:102570005034022808D0A2462046FFF715FAA8B129
:1025800031E00220BDE8F0872046FFF70DFA08BBD6
:102590000120FFF7A9F92046FFF706FAD8F8101036
:1025A000064621F00401C8F810101CE04FF0FF307F
:1025B0003860AC6811E02046FFF7A8F95046FFF7F5
:1025C000F3F9D8F81010060021F00201C8F8101035
:1025D00001D03C6007E004F58064D5E9020100EB1E
:1025E0008120A042E7D8002189F818103046C9E7B9
:1025F000F8050020002002400348016941F08001F5
:102600000161002070470000002002402DE9F05FCA
:1026100007461C4888460024017E15461E460129AF
:1026200009D00121814601764CF2503A5046FFF71D
:10263000BBF918B122E00220BDE8F09F012F02D0C3
:10264000022F00D00427D346DFF83CA02201284601
:102650003146FDF769FD81B208EB4400FFF768F9E8
:102660005846FFF7A1F9DAF8102022F00102CAF863
:10267000102018B9641CE4B2BC42E7D3002289F8E8
:102680001820D9E7F8050020002002400649002064
:102690000A69120607D5054A4A60054A4A6009696F
:1026A000090600D50120704700200240230167453C
:1026B000AB89EFCD2DE9F84FDFF8B891002409F18F
:1026C000040A0AF1040B23460F270BF1040EC9E09C
:1026D0000125A5402A40AA427DD1674ED1F804C009
:1026E000ACEB0608B44532D014DCBCF1030F3AD091
:1026F00009DCBCF1000F2AD0BCF1010F1CD0BCF1E9
:10270000020F31D11DE0BCF1110F17D0BCF1120F37
:102710002AD119E0B8F5881F19D006DCB8F5803F3A
:1027200015D0B8F5801F1FD111E0B8F5001F0ED0ED
:10273000B8F5041F18D10AE0CB6815E0CB681B1D63
:1027400012E0CB6808330FE0CB680C330CE08B68E9
:102750002BB1012B4FF0080303D0456104E00423A3
:1027600002E0056100E00023FF2A01D8064601E0EF
:1027700000F104064FEA840501D9A5F12005D6F839
:10278000008007FA05FC28EA0C0803FA05F548EA78
:102790000508C6F800804D68ED0062D5374DAE697A
:1027A00046F00106AE61AD6924F0030605F00105AF
:1027B0000095334D06EB050CDCF80850A607360FE4
:1027C00007FA06F825EA0805DFF8B880404503D186
:1027D0004FF0000817E044E0DFF8AC80404502D13C
:1027E0004FF001080FE0DFF8A480404502D14FF020
:1027F000020808E0DFF89880404502D14FF0030856
:1028000001E04FF0040808FA06F848EA0508CCF899
:1028100008804D68D9F80060ED034D4601D5164398
:1028200000E096432E604D68DAF80060AD0355462F
:1028300001D5164300E096432E604D68DBF800603A
:10284000ED025D4601D5164300E096432E604D68CB
:10285000DEF80060AD02754601D5164300E09643F0
:102860002E60641C0D682A46E5407FF431AFBDE858
:10287000F88F000000040140000011100010024019
:102880000000014000080140000C01400010014020
:10289000001401408068084000D0012070470AB150
:1028A000016170470904FBE7014880687047000038
:1028B000100000200248816802781144816070474E
:1028C00010000020074810B5016841F010010160B8
:1028D000032000F075F8002000F006F800F024F85E
:1028E000002010BD0020024070B50D4D04464FF48D
:1028F0007A712878B1FBF0F00A490968B1FBF0F071
:1029000000F003FD48B9102C07D200222146501ECA
:1029100000F036F800206C6070BD012070BD000032
:10292000100000201C0000200C4808B5816941F00F
:1029300001018161816901F001010091C16941F0EA
:102940008051C161C06900F0805000900448416826
:1029500021F0E06141F00071416008BD00100240CB
:1029600000000140002809DB00F01F020121914016
:102970004009800000F1E020C0F80011704700001D
:10298000F0B40E4B1B680C46C3F30223C3F10705DA
:10299000042D00D90425191D072901D2002300E0C8
:1029A000DB1E012606FA05F1491E214099409E4092
:1029B000761E16403143F0BC02F0A2BF0CED00E0E1
:1029C000064900F0070208684FF6FF03184040EA86
:1029D0000220034A10430860704700000CED00E03D
:1029E0000000FA05BFF34F8F05480168054A01F45E
:1029F000E06111430160BFF34F8F00BFFDE70000AE
:102A00000CED00E00400FA052DE9F84305460078D6
:102A1000354CC00754D0E0690026C00008D4E069F6
:102A200040F08050E061E069012600F080500090A5
:102A30002E480168C90512D40168804641F48071AE
:102A40000160FFF731FF074605E000BFFFF72CFFED
:102A5000C01B642823D8D8F80000C005F6D5206A2A
:102A600010F4407021D0A98801F4407181421CD03B
:102A7000206A1F49012220F440700A6000220A6087
:102A80002062C00711D0FFF70FFF074641F28838D8
:102A900008E000BFFFF708FFC11B414502D9032032
:102AA000BDE8F883206A8007F4D5206A696820F4BD
:102AB0004070084320621EB1E06920F08050E06160
:102AC0002878800705D56068A96820F4404008434D
:102AD00060602878C00605D56068E96820F4800049
:102AE000084360600020DBE70010024000700040F7
:102AF000400442422DE9F0470F46050061D0434EA5
:102B0000306800F00700B84209D2306820F00700B2
:102B100038433060306800F00700B84251D128686F
:102B20003B4C810712D5400703D5606840F4E06054
:102B300060602878000703D5606840F460506060EA
:102B40006068A96820F0F000084360602878C0073A
:102B500028D06868012810D02168022810D0890781
:102B600000292EDA616821F0030101436160FFF75B
:102B70009BFE804641F288390DE021688903EFE72A
:102B80008901EDE7FFF790FEA0EB0801494502D966
:102B90000320BDE8F0876068696800F00C00B0EBC6
:102BA000810FEFD1306800F00700B8420BD93068D0
:102BB00020F0070038433060306800F00700B8426A
:102BC00001D00120E5E72878400705D56068E9686D
:102BD00020F4E060084360602878000706D560684C
:102BE000296920F4605040EAC100606000F038F8C4
:102BF0006168084AC1F30311515CC8400649086086
:102C000006480068FFF770FE0020C2E7002002407F
:102C100000100240185D00081C0000201400002075
:102C20000448054900684968044AC1F30221515C1F
:102C3000C84070471C00002000100240285D0008BA
:102C40000448054900684968044AC1F3C221515C3F
:102C5000C84070471C00002000100240285D00089A
:102C600013A185B00FC98DE80F0015A0154A0068A3
:102C70000490516801F00C00042804D0082804D006
:102C8000114805B070471148FBE7C1F38343C903FE
:102C90001DF8030009D5516804AAC1F34041515CF5
:102CA0000A4A5043B0FBF1F0EBE709494843E8E733
:102CB00002030405060708090A0B0C0D0E0F10107D
:102CC000010200000010024000127A00001BB70051
:102CD00000093D002DE9F84F040070D02078C04D68
:102CE000C00749D06868C0F38100012807D0686830
:102CF000C0F38100022809D16868C00306D528689E
:102D0000800339D560680028E7D035E06068B0F509
:102D1000803F0BD010B1B0F5A02F11D0286820F45F
:102D200080302860286820F4802002E0286840F481
:102D300080302860606890B1FFF7B6FD06460AE073
:102D4000286840F480202860F0E700BFFFF7ACFD62
:102D5000801B642873D828688003F7D50CE0FFF740
:102D6000A3FD064605E000BFFFF79EFD801B64281B
:102D7000F0D828688003F7D420789A4E80074FF067
:102D800001094FF0000839D5686810F00C0F07D022
:102D90006868C0F38100022809D16868C00306D4BE
:102DA0002868800714D52069012808D110E020691F
:102DB000B0B1C6F80090FFF777FD074605E00AE1DD
:102DC000FFF772FDC01B0228C4D828688007F7D51A
:102DD0002868616920F0F80040EAC10028600DE031
:102DE000C6F80080FFF760FD074604E0FFF75CFDD2
:102DF000C01B022823D828688007F7D42078000752
:102E00002CD57948A169D9B1C0F80090FFF74CFDE5
:102E1000074604E0FFF748FDC01B02280FD8686A88
:102E20008007F7D571484FF4FA510068B0FBF1F014
:102E3000009000BF0098411E0091FAD20EE080E0A1
:102E4000C0F80080FFF730FD074604E0FFF72CFDD7
:102E5000C01B022875D8686A8007F7D4207840071D
:102E600060D5E8690027C00008D4E86940F08050C8
:102E7000E861E869012700F0805000905C48016833
:102E8000C90513D40168834641F480710160FFF7DE
:102E90000BFD824606E000BFFFF706FDA0EB0A002F
:102EA00064284ED8DBF80000C005F5D5E06801289D
:102EB0000AD008B1052813D0286A20F00100286242
:102EC000286A20F0040002E0286A40F0010028622D
:102ED000E06841F2883B98B1FFF7E6FC82460BE0E0
:102EE000286A40F004002862EEE700BFFFF7DCFC30
:102EF000A0EB0A0159455AD8286A8007F6D50CE09C
:102F0000FFF7D2FC824605E0FFF7CEFCA0EB0A01FA
:102F100059454CD8286A8007F6D41FB1E86920F0DB
:102F20008050E861E06988B36968C1F381010229D2
:102F300044D00228C6F8608004D0FFF7B5FC0446F0
:102F400038E034E0FFF7B0FC074604E0FFF7ACFCE4
:102F5000C01B02282BD828688001F7D4206AB0F55E
:102F6000803F05D16868A16820F40030084368609C
:102F7000D4E908010843696821F4741108436860C2
:102F8000C6F86090FFF790FC044606E025E000BF1D
:102F9000FFF78AFC001B022809D828688001F7D5B2
:102FA0001BE000BFFFF780FC001B022802D90320B2
:102FB000BDE8F88F28688001F4D40EE00128F7D02E
:102FC0006868226A00F48031914204D1616A00F499
:102FD0007010884201D00120EAE70020E8E70000F5
:102FE0000010024000004242800442421C000020C7
:102FF0000070004070B5040009D0606A002540B13F
:1030000025616561A56294F8510040B10CE0012092
:1030100070BD6068B0F5827FF4D0E561F2E784F8B6
:103020005050204600F040F8022084F851002068FB
:10303000016821F040010160A088218900F48270BC
:1030400001F404410843A18901F400610843217C93
:1030500001F002010843217D01F001010843218BA9
:1030600001F400710843217F01F03801084394F80E
:10307000201001F080010843218D01F40051084324
:1030800021680860A069042101EA104021684860B5
:103090002068C16921F40061C1616565012084F87F
:1030A0005100002070BD000030B585B000240094B0
:1030B0000194029403940068174988422AD1174862
:1030C000816941F480518161816901F480510491E9
:1030D000816941F0080181618069114D00F00800AB
:1030E000049028200090022001900320039069465C
:1030F0002846FFF7DFFA1020CDE90004694628468C
:103100000294FFF7D7FA0748416841F0E06141F0C7
:103110000101416005B030BD0030014000100240A7
:10312000000C0140000001402DE9F84F044690F8E2
:10313000500000270A9E1D4692468B464FF001091B
:1031400001280ED0012084F85000FFF7ADFB804627
:1031500094F85100616801280CD0B1F5827F07D145
:1031600002E00220BDE8F88FA16809B9042801D067
:103170000227C2E0BBF1000F27D0BAF1000F24D024
:103180001DB394F85100042802D0052084F85100A2
:1031900000206065C4F838A0E587A587C4F830B082
:1031A000E586A5862064606420680168490603D42A
:1031B000016841F040010160E068B0F5006F6068AF
:1031C00005D0E8B3012D46D07FE0012795E008B196
:1031D000012D39D1206B21680088C860206B801CCC
:1031E0002063E08E401EE0862EE02068816889071B
:1031F0000FD5E18E69B1B9F1010F0AD1216B0988B0
:10320000C160206B801C2063E08E401EE0864FF082
:10321000000920688168C9070CD0E18F51B1C068EE
:10322000A16B0880A06B801CA063E08F401EE0872C
:103230004FF00109FFF738FBA0EB0800B04200E0B7
:1032400009E001D3701C50D1E08E0028CDD1E08F71
:103250000028CAD13FE0206B216800780873206BFA
:10326000401C2063E08E401EE0862EE020688168CE
:1032700089070FD5E18E69B1B9F1010F0AD1216B30
:1032800009780173206B401C2063E08E401EE086AD
:103290004FF0000920688168C9070CD0E18F51B157
:1032A000C068A16B0870A06B401CA063E08F401E3B
:1032B000E0874FF00109FFF7F7FAA0EB0800B042F2
:1032C00002D3701C01D010E07EB1E08E0028CDD179
:1032D000E08F0028CAD142463146204601F0E4FB87
:1032E00028B101272020606507E0032705E0A068DA
:1032F00018B92068C16880680090012084F85100E6
:10330000002084F8500038462CE710B5401EB0F17C
:10331000807F01D3012010BD4FF0E02460610F21B8
:10332000601702F0EDFA0020A06107202061002064
:1033300010BD70477047000070B590F83C20012A1E
:1033400026D0012480F83C40022280F83D2003680A
:103350005A689D6822F070060A6832435A600D4B25
:1033600002689A4208D0B2F1804F05D00A4B9A42C7
:1033700002D00A4B9A4204D1496825F080031943D0
:10338000916080F83D40002180F83C10084670BDF7
:10339000022070BD002C01400004004000080040E5
:1033A00010B5040003D094F83D0010B107E00120EF
:1033B00010BD002084F83C00204600F01FF80220D9
:1033C00084F83D00211D206801F032FD012084F8C1
:1033D000460084F83E0084F83F0084F8400084F8FA
:1033E000410084F8420084F8430084F8440084F8E3
:1033F000450084F83D00002010BD000008B5154AC6
:103400000168154891420ED1816941F400618161E2
:103410008069002200F40060009011461920FFF737
:10342000AFFA192010E00D4A914211D1C16941F063
:103430000401C161C069002200F00400009011463F
:103440001E20FFF79DFA1E20BDE80840FFF78ABA4C
:1034500008BD0000002C01400010024000080040A0
:1034600090F83D10012901D001207047022180F819
:103470003D100168CA6842F00102CA6000680B4949
:10348000884208D0B0F1804F05D00949884202D067
:103490000849884204D1816801F00701062903D058
:1034A000016841F00101016000207047002C0140DB
:1034B000000400400008004070B5044690F83C004D
:1034C000012817D0012584F83C50022084F83D00E3
:1034D0002068826822F0770222F47F4282600868C6
:1034E000502830D00DDC20284DD005DC98B31028B2
:1034F0003BD148E0022070BD302844D0402834D170
:1035000039E0602828D0702806D0B0F5805F2CD034
:10351000B0F5005F29D10AE0CB68D1E9012120682C
:1035200001F0C9FC2068816841F0770109E0CB68AF
:10353000D1E90121206801F0BEFC2068816841F4D6
:103540008041816011E0CA684968206801F068FD27
:103550005021206807E016E0CA684968206801F039
:1035600070FD6021206801F0B0FC84F83D5000201F
:1035700084F83C0070BDCA684968206801F050FDBD
:1035800040212068EFE7226801461046EBE77047CC
:1035900070B50446006801694FF00005C94389070A
:1035A00015D4C168C943890711D4E91E01610120FE
:1035B0002077206880698007204602D0FFF7E7FF68
:1035C00004E000F0C9F8204600F06AF92577206889
:1035D0000169C943490717D4C168C943490713D4CE
:1035E0006FF004010161022020772068806910F4E7
:1035F000407F204602D0FFF7CAFF04E000F0ACF89D
:10360000204600F04DF9257720680169C943090774
:1036100016D4C168C943090712D46FF008010161CB
:10362000042020772068C0698007204602D0FFF779
:10363000AEFF04E000F090F8204600F031F9257765
:1036400020680169C943C90617D4C168C943C906BE
:1036500013D46FF010010161082020772068C06941
:1036600010F4407F204602D0FFF791FF04E000F005
:1036700073F8204600F014F9257720680169C943E2
:10368000C90708D1C168C943C90704D1891E0161AE
:10369000204600F055F920680169C943090609D49C
:1036A000C168C943090605D46FF080010161204655
:1036B000FFF73FFE20680169C943490609D4C16884
:1036C000C943490605D46FF040010161204600F06E
:1036D00047F920680169C94389060BD4C168C94309
:1036E000890607D46FF0200101612046BDE87040D3
:1036F000FFF720BE70BD000000B585B0002100912D
:103700000191029103910068B0F1804F1BD10F48E5
:10371000816941F0080181618069694600F0080013
:1037200004904FF4406000900220019003900848FC
:10373000FEF7C0FF0748416821F4407141F0E061A5
:1037400041F40071416005B000BD0000001002406E
:10375000000C014000000140704770B5044690F82D
:103760003C000D4601280AD0012084F83C0042B1FB
:10377000042A18D0082A2AD00C2A4DD139E0022078
:1037800070BD206801F0AAFB2068816941F0080142
:1037900081612068816921F004018161206881696B
:1037A0002A69114311E0206801F0C0FB206881699B
:1037B00041F4006181612068816921F48061816147
:1037C000206881692A6941EA0221816124E0206838
:1037D00001F0D8FB2068C16941F00801C16120688F
:1037E000C16921F00401C1612068C1692A691143DE
:1037F00011E0206801F0F2FB2068C16941F400612A
:10380000C1612068C16921F48061C1612068C1691A
:103810002A6941EA0221C161002084F83C0070BDA0
:1038200010B5040003D094F83D0010B107E001206A
:1038300010BD002084F83C00204600F01FF8022054
:1038400084F83D00211D206801F0F2FA012084F87F
:10385000460084F83E0084F83F0084F8400084F875
:10386000410084F8420084F8430084F8440084F85E
:10387000450084F83D00002010BD000008B5006838
:10388000B0F1804F08D10548C16941F00101C16123
:10389000C06900F00100009008BD00000010024067
:1038A0007047000010B50446022249B104290ED029
:1038B000082913D094F84100012816D0012010BD2A
:1038C00094F83E000128F9D184F83E200FE094F8E6
:1038D0003F000128F2D184F83F2008E094F840002E
:1038E0000128EBD184F8402001E084F84120012236
:1038F000206801F0D3FA0F492068884203D1426C56
:1039000042F4004242642068884208D0B0F1804FFF
:1039100005D00949884202D00849884204D181680B
:1039200001F00701062903D0016841F0010101609F
:10393000002010BD002C01400004004000080040A1
:1039400000680549884201D101F08EBB03498842D5
:1039500001D101F019BC7047002C01400008004063
:103960007047704710B504460068416994F83D20DF
:10397000C1F3C011212A0BD151B1416921F080015D
:103980004161606B08B1FEF751FC204601F02BFD50
:103990002068416994F83E20C1F38011222A0BD19E
:1039A00051B1416921F040014161A06B08B1FEF7BE
:1039B0003DFC204601F0FFFC002010BD70470000D8
:1039C000F8B5026804461068D168536910F00F0F0B
:1039D0004FF0000553D003F0010601F49077374310
:1039E0005FD0C20705D0CA0503D5226C42F00102A0
:1039F0002264420705D5DA0703D0226C42F00202A6
:103A00002264820705D5DA0703D0226C42F0040253
:103A10002264020707D501F02002324303D0226C52
:103A200042F008022264226C002A34D0800604D5B9
:103A3000880602D5204601F0DFFC20684069216C31
:103A4000C0F38010090700D430B3204601F0B3FC66
:103A50002068416949061BD5416921F04001416157
:103A6000A06BA8B158494163A06BFEF703FC002886
:103A700011D0A06B416B01B0BDE8F0400847830650
:103A80000FD58B060DD52046BDE8F84001F0B4BC3B
:103A90002046FFF793FFF8BD2046FFF78FFF256410
:103AA000F8BD266B2023012E52D1C60650D5CE0676
:103AB0004ED5106850680090506940062AD5A16B19
:103AC000086840680004000CEAD0A68D8642E7D959
:103AD000E0858869202818D0D06820F48070D060F4
:103AE0002068416921F0010141612068416921F0AC
:103AF0004001416184F83E3025632068C16821F0AF
:103B00001001C160A06BFEF791FBA08DE18D401A02
:103B100081B219E0A08DE18D401A81B2E08D0028BC
:103B2000BED00029BCD0D06820F49070D06020684E
:103B3000426922F00102426184F83E302563206828
:103B4000C26822F01002C2602046FFF70AFFF8BDEB
:103B500005062BD50D0629D594F83D002128F6D170
:103B6000A068B0F5805F01D12069B0B1206A411C26
:103B70002162216800784860E08C401E0004000C3F
:103B8000E084E4D12068C16821F08001C160206830
:103B9000C16841F04001C160F8BD206A0088C0F3EF
:103BA00008005060206A801C2062E5E74006F3D5DB
:103BB0004806F1D5D168204621F04001D16084F853
:103BC0003D3000F05FF9F8BDB152000870B5040057
:103BD00004D094F83D00002510B106E0012070BD2E
:103BE00084F83C50204600F023F8242084F83D005F
:103BF0002068C16821F40051C160204601F058FCE2
:103C00002068016921F4904101612068416921F037
:103C10002A0141612068C16841F40051C1602564F6
:103C2000202084F83D0084F83E00002070BD000094
:103C30002DE9F04186B000240646009401940294D8
:103C400003940068304988425BD13048816941F46F
:103C500080418161816901F480410491816941F071
:103C60000801816180692A4D00F00800049040201D
:103C70000090022001900320039069462846FEF739
:103C800019FD4FF08008CDE9008447466946284673
:103C90000294FEF70FFD1F48416841F0E06141F0DA
:103CA000040141601D4D1C4801C5102091C507024B
:103CB00045F8104919486C61C5E90647FEF7D0FB85
:103CC00008B1FDF70FFE75636E62144D124844355E
:103CD0001430C5E90004C5E902482C616C61C5E9EE
:103CE00006472846FEF7BCFB08B1FDF7FBFDB563B0
:103CF0000022032125206E62FEF742FE2520FEF7FA
:103D000031FE06B0BDE8F0810038014000100240ED
:103D1000000C014000000140440002406C050020FE
:103D200090F83E30202B0ED159B152B190F83C3072
:103D3000012B08D0012380F83C300023036301F0FD
:103D400013BC012070470220704770477047000085
:103D50002DE9F843044690F83D001F4616460D46EF
:103D600020284CD1C5B1BEB194F83C00012846D002
:103D7000012084F83C004FF00008C4F84080212066
:103D800084F83D00FEF790FDA6848146E684A06895
:103D9000B0F5805F03D004E00120BDE8F88320691E
:103DA00028B12E465FF0000584F83C800EE0002626
:103DB000FAE78021204601F00FFCA0B9AEB116F859
:103DC000010B21684860E08C401EE084E08C4B468B
:103DD0004FF0000200970028EBD14FF04001204641
:103DE00001F0FAFB30B10320D7E735F8020BC0F33E
:103DF0000800E6E7202084F83D000020CDE70220FF
:103E0000CBE7000070B5044690F83D00202830D183
:103E100069B362B394F83C0001282AD0012084F8E9
:103E20003C002162A284E28400252564212084F8DC
:103E30003D00636B10489862636B1048D862636BF7
:103E40000F481863606B134645632668606B321D2C
:103E5000FEF734FB21686FF04000086084F83C50A6
:103E60002068416941F080014161002070BD01205E
:103E700070BD022070BD00007F530008AD530008E4
:103E8000C152000801490120087070470800002055
:103E90007047FEE70B4810B500218160C1600161E9
:103EA000017041708170C170012101714171002167
:103EB000084600F009F80021BDE81040012000F09C
:103EC00003B800002000002030B44FF48054084BA9
:103ED000651039B14FF0010240B1294630BC184697
:103EE000FEF7DDBC4FF000020028F6D12146F5E7D1
:103EF000000801402DE9F0415B4C00250227A26833
:103F0000012610444FF00308A06006291DD2DFE807
:103F100001F00F0B0713180325706570A6705AE0A7
:103F200026706670A57014E026706570A5704DE06F
:103F300025706570A5704EE02670657084F802806B
:103F400044E025706570A77045E0217881B3617801
:103F500079B345492279C968012A06D0022A0FD0CF
:103F6000032A19D0042A2FD124E0401A642836D914
:103F700000210846FFF7A8FFA068E06027712EE047
:103F8000401A64282BD901210020FFF79DFFA0686B
:103F9000E06084F8048022E0401A64281FD90021E0
:103FA0000846FFF791FFA068E0600420207116E04A
:103FB00011E00BE0401AB0F52F7F10D9012100204D
:103FC000FFF782FFA068E060267108E00121002071
:103FD000FFF77AFFF8E700210846FFF775FF6079E1
:103FE000012804D0022810D003283AD128E0216902
:103FF000A068401A642806D900210120FFF764FF59
:10400000A06820616771BDE8F0812169A068401A4D
:104010006428F8D9E078401CC0B2E070A1788142F1
:1040200005D901210846FFF74FFF667105E0002121
:104030000120FFF749FF84F80580A0682061E2E7CE
:104040002169A068401AB0F57A7FDCD9E570A078C4
:1040500008B1012100E000210120FFF735FFA06831
:1040600020616671CFE700002000002001484088F1
:1040700070470000400000200148008870470000A1
:1040800040000020014948607047000040000020C7
:1040900031B50D4D4FF4004482B000222146284630
:1040A000FEF7FDFB4FF0FF300090012301AA02A9AB
:1040B0000648FFF739F8012221462846FEF7EFFBB4
:1040C000BDF804003EBD000000080140F8020020D9
:1040D0002DE9F047234D4FF40340002628802F1D83
:1040E0004FF404403C1D68804FF00108A4F1100912
:1040F0002888FFF7CDFF38806888FFF7C9FF7880F0
:104100003978002261F31F20208011464FEA080C05
:104110000CFA01F3034201D0521CD2B2491CC9B2BD
:104120001029F5D312F0010F06D00020761CF6B24C
:104130006071032EDCD310E084F8058020888108AC
:104140006180C0F340002071A9F80210D9F8042062
:104150000AB132F81110A9F80010B9F80000BDE852
:10416000F0870000480000203EB50024114800946C
:10417000019402940E498460016001250573047561
:1041800005614FF460214460C161FDF77DFD08B118
:10419000FDF7A8FB07200094CDE9015069460548CA
:1041A000FDF7F4FC002801D0FDF79CFB3EBD0000AC
:1041B000002401405C020020104810B50E49016047
:1041C0000421416000214FF480228160C0E9031284
:1041D0004FF4401242610176417601228276C17627
:1041E00001774177FDF727FF002803D0BDE8104095
:1041F000FDF778BB10BD000000640040D002002035
:10420000114808B5416941F001014161406900224E
:1042100000F00100009011460B20FEF7B1FB0B20CF
:10422000FEF7A0FB002203210E20FEF7A9FB0E20C3
:10423000FEF798FB002203210F20FEF7A1FBBDE84B
:1042400008400F20FEF78EBB0010024070B586B00C
:1042500000241C480094019402940394816941F065
:1042600020018161816901F020010491816941F09F
:1042700004018161816901F004010491816941F0C7
:10428000080181618069104E00F0080049F63C0584
:104290000490002229463046FEF701FB0220CDE9BA
:1042A000024000950125694601953046FEF702FA65
:1042B00041F204008DE8310069460448FEF7FAF93E
:1042C00006B070BD0010024000080140000C014023
:1042D000114810B50F4901604FF48271416000210F
:1042E0004FF40062C0E9021202220261012242611F
:1042F000520282611022C0E90721416281620A21D3
:10430000C162FEF777FE002803D0BDE81040FDF73C
:10431000E9BA10BD00300140F802002010B586B0A7
:1043200000241848009401940294039404941449BE
:10433000059401604721C0E9011442F20F71C0E900
:1043400003148021C0E90541FFF72AF808B1FDF701
:10435000C9FA4FF48050009069460A48FFF7ACF85C
:1043600008B1FDF7BFFA049404A906480594FEF7C6
:10437000E3FF002801D0FDF7B5FA06B010BD00003C
:10438000002C01405003002010B58AB0002407948F
:104390001C2168460894FBF7DEFE19484FF0804167
:1043A000C0E9001440F2FF31C0E9024104618461B8
:1043B000FFF736FA08B1FDF795FA079407A91048F8
:1043C0000894FEF7B9FF08B1FDF78CFA6020CDE93B
:1043D000000402940822694609480494FFF7BDF9D5
:1043E00008B1FDF77FFA0C2269460548FFF7B5F9D9
:1043F00008B1FDF777FA0248FFF77EF90AB010BD61
:104400009803002010B586B000241748009401944A
:104410000294039404941349059401604721C0E970
:1044200001143121C0E9031480218161FEF7B8FF36
:1044300008B1FDF757FA4FF48050009069460A48DA
:10444000FFF73AF808B1FDF74DFA049404A90648BD
:104450000594FEF771FF002801D0FDF743FA06B07E
:1044600010BD000000080040E003002010B5134C10
:1044700011480C2120604FF4E13060600020A06002
:10448000E060C4E90401A061E0612046FFF79EFB03
:1044900008B1FDF727FA2068C16841F01001C1603A
:1044A000084907484FF480724860BDE8104006494B
:1044B0000248FFF735BC0000003801402805002005
:1044C000C15600080800002028040020FEE7000074
:1044D000024800210165C1707047000048010020BA
:1044E000044810B5C06CFCF785F8BDE810400249DF
:1044F000FCF742B84801002000007A4401484078A7
:104500007047000048010020084A10B5D368084CE5
:104510001B6808B1106900E09069C01AFCF76AF8DE
:104520002146BDE81040FCF727B8000048010020F4
:10453000000048470148807870470000480100208B
:10454000044810B5006AFCF755F8BDE81040024970
:10455000FCF712B848010020000048470D4810B58C
:10456000012181720021C170417201654165C068FD
:1045700000280ED008490860FCF7CEFF01F08CF946
:1045800000F052FA00F0A4F9BDE81040C82000F095
:104590007BBE10BD48010020B00000200149C8606A
:1045A00070470000480100200549CA6892688242AD
:1045B00002DB5242824201DD8A63704788637047A2
:1045C00048010020014908707047000048010020A0
:1045D0000249CA6812681044086370474801002005
:1045E000044AD168C9684B42834202DC814200DB45
:1045F000506370474801002070B5FFF769FDFFF771
:104600003BFDA04C4FF4C8420025A17AB1B1E1684E
:104610000968914206DA01F5C841814208DAA0F53D
:10462000484005E0A1F5C841814201DD00F5484060
:1046300020616061A061E061A57270BD2169C4E97B
:104640000401401A904202DDA0F5484004E010F554
:10465000C84F01DA00F54840A1690844C4E90601E1
:10466000401A226A40F271214843C2EB4212616A49
:1046700002EB401001444811A1EB4011C4E90801CC
:10468000FCF7C2FEA062A1690844E062E078A1796B
:1046900008430BD1FCF7FAFF40B1E07958B1FCF7C1
:1046A000A7FEA564E56400F009FB1CE0FCF7A0FE92
:1046B000A564E56408E06078082814D2DFE800F01B
:1046C00004070C1007070C1000F096FB0BE0D4E970
:1046D0000F01FCF79FFC06E0206CFCF7E7FC02E012
:1046E000606CFCF785FC617820780126814201D05E
:1046F00060702672E168626BC868904202DB4042DB
:10470000904200DD60638868A16B884202DB404212
:10471000884200DDA063A0792179884303D1E07944
:104720006179884301D0267201E0207AF0B12572C8
:10473000FCF75EFEFFF7CCFE6078082816D2DFE8B3
:1047400000F01504090D1104090D216AE06A00F05A
:104750007BF90BE0206A01F0A7F807E0E06CFCF7BA
:10476000E3FE03E0216AE06A00F096FD6078082825
:104770001AD2DFE800F019040C132C040C13206B80
:1047800000F0A8F840480068E063404803E0606B30
:1047900001F04EF83E480068206405E0A06BFCF78D
:1047A00087FE3C48006860642079A0716079E07100
:1047B000E06C002800DA4042E168374A91F8743032
:1047C00003B36378032B0BD0072B09D009E0D4E99E
:1047D0000C0100F0EDFC31480068E0633048DAE796
:1047E00010B98B6883420ED1236A002B00DA5B423A
:1047F000B3F5205F08DA236D934201D3E67003E03E
:104800003233236500E025656378032B0CD0072B3A
:104810000AD08968814207D1606D904201D36672E7
:1048200004E03230606501E065656572FCF72EFFDB
:1048300030B1607830B1E17831B10420A07070BD42
:104840000520FBE7A57070BD617A09B10320F5E78B
:104850000221012804D002280CD003280DD005E045
:10486000226BE06B904203D1206C08B9A67070BD3A
:10487000A17070BD626B206C01E0A26B606C904215
:10488000F6D1F3E748010020F4000020F8000020F2
:10489000D0000020C000002040420F004001002056
:1048A0004401002007494FF448428869C96890FBD9
:1048B000F2F302FB130008600349402288600020E5
:1048C000FCF7A8BE48010020A4010020FEE77047C5
:1048D000704700002DE9F84F524D4FF00006696C0B
:1048E000B0EB01082846D0F82CB0C46BCBF1000720
:1048F0002AD0D0F828A0CAF10000814694B32846F7
:10490000B8F1000F016B009140683BDD002C6DDDBC
:10491000D0F80C90A14562DB2046FBF76BFE014608
:10492000FBF7F8FD0099FBF7F5FDFBF76CFE804502
:1049300020DDA14562DD5046FCF7F8FB6868E96BB5
:10494000C06888423EDD59E0686B41428C4205DB1D
:10495000844203DCAE63EE632E644FE0002C3EDC49
:1049600044DB4BE0FFE7B8F1000F00DD5046FCF7F9
:10497000DDFB43E02C463846FCF7D8FBE06B002813
:104980002ADD3BE0002C2ADAC0684742A7422DDC32
:104990002046FBF72FFE0146FBF7BCFD0099FBF715
:1049A000B9FDFBF730FEC8F1000181420DDDA742E1
:1049B00024DA4846FCF7BAFB6868E96BC0684042F5
:1049C00088421BDBC5E90E6018E02C465846FCF710
:1049D000ADFBE06B002811DBA663E6630EE0384612
:1049E000FCF7A4FBE86B002806DD07E05846FCF75F
:1049F0009DFBE86B002801DBAE63EE63284644F6BE
:104A00002063D0E90F120A4492FBF3F46D6C2C443E
:104A100092FBF3F503FB1522C0E91024C0E9124113
:104A2000BDE8F88FAC00002010B5064C6068006946
:104A300000F014F860684FF47A71006990FBF1F0AF
:104A4000606310BDAC000020034A0023C2E90E30B1
:104A5000C2E9103170470000AC00002010B5064CD0
:104A6000A062E062FBF7C6FD01464FF07C50FBF709
:104A700083FD206310BD0000AC00002010B5094A82
:104A8000012802D0022808D102E04FF4805100E052
:104A900004211046FDF7FEFE08B1002010BD0120E4
:104AA00010BD0000000C014038B50B4600920446D2
:104AB0000022802100F008F8002804D0606D40F04A
:104AC00020006065032038BD2DE9F8431E4691465D
:104AD00088460446089DFDF7E7FE401B351AFDF7A2
:104AE000E3FE074625480068C0F3CB30684338E052
:104AF000701C37D0FDF7D8FEC01BA84203D215B1F9
:104B0000009860B32CE02068416821F0E00141602A
:104B10006068B0F5827F0BD1A068B0F5004F02D07D
:104B2000B0F5806F04D12068016821F04001016078
:104B3000A06AB0F5005F09D12068016821F4005136
:104B400001602068016841F400510160012084F88F
:104B50005100002084F850000320BDE8F8830025B0
:104B6000401E00902068816838EA010004D00021CE
:104B70004945BDD10020F0E70121F9E71C000020E4
:104B8000704710B50446FDF781FD2068E06010BD58
:104B90002DE9F04385B00546FDF778FD0024274652
:104BA0004FF001084FF0FF390D4E11E000972868D3
:104BB00004A900EB8420CDE902086846FDF7C8FC93
:104BC0004846FCF7F1FE306920F002003061641CB9
:104BD000A868A042EAD805B0BDE8F043FDF70CBDD7
:104BE00000200240FDF708BD02688A4204D84368ED
:104BF0001A448A4200D3C160704700002DE9F04199
:104C00000F460446C16800681646814216D36268A2
:104C100001EB46011044814210D800250CE000BF92
:104C200037F8152000230120E168FDF7EFFC10B9EB
:104C3000E068801CE0606D1CB542F1D3BDE8F081F6
:104C4000FDF738BE30B593B028216846FBF783FAEC
:104C500014210AA8FBF77FFA002501200F95109573
:104C60001195010412958DE8230004900005CDE90B
:104C70000810022407946846FEF72CF808B172B6B3
:104C8000FEE70AA90F2081E831004FF48060CDE9EA
:104C90000D0502210AA8FDF72DFF08B172B6FEE747
:104CA0004FF4004011900F940FA8FDF7ADFE0028BF
:104CB00001D072B6FEE713B030BD704710B50021C9
:104CC000084600F08FF80121084600F05BF801214A
:104CD000BDE81040084600F06DB8000070B5274CE4
:104CE000C0F3090000F58072A51F254B2080C2F398
:104CF00009022A8033F912206A8033F9100060809B
:104D0000002900DC494241F2DB335943C1F30B3146
:104D1000002A00DC524212B2002800DC404203B2FA
:104D200001FB02F0C0F30F305943A880C1F30F31EB
:104D3000A18000F057F8B5F90200002812DD4FF00D
:104D4000000100BF4FF0010000F01CF8B4F90200B0
:104D500000280DDD4FF000014FF00100BDE870406C
:104D600000F028B84FF00101ECDA4FF00000EBE75B
:104D70004FF00101F0DA4FF00000EFE78000002073
:104D8000305D000870B50A4D0C4608B1012200E004
:104D9000002204212846FDF782FD0CB1012200E02B
:104DA00000222846BDE870400821FDF778BD0000CC
:104DB0000008014070B50A4D0C4608B1012200E020
:104DC000002210212846FDF76AFD0CB1012200E007
:104DD00000222846BDE870402021FDF760BD00009C
:104DE00000080140820803480368DA630068890804
:104DF000016470479803002010B500210846FFF7B2
:104E0000F1FF00210846FFF7BDFF0021BDE810407B
:104E10000846FFF7CFBF00000148FEF7B9BB00000E
:104E2000500300200148FEF7B3BB0000E003002060
:104E3000F0B50268164B174C174D4FF0804798425B
:104E400005D0B84203D0A04201D0A84203D122F03D
:104E500070064A683243984205D0B84203D0A04257
:104E600001D0A84203D122F44074CA6822434C699D
:104E700022F08002224302608A68C2620A6882626B
:104E8000984201D10969016301214161F0BD00002F
:104E9000002C0140000400400008004010B501F063
:104EA0001F030121046A99408C430462016A9A40FD
:104EB0001143016210BD10B5846842EA032224F454
:104EC0007F440A432243826010BD826822F0700250
:104ED0000A4342F0070181607047000030B5026A62
:104EE00022F001020262026A4368846924F07305B9
:104EF0000C682C4322F002058A682A430A4DA84216
:104F00000BD122F00805CA6823F440732A434D6987
:104F100022F004021D438B692B434360846149687E
:104F20004163026230BD0000002C014030B5026ACE
:104F300022F010020262026A436884690D6824F458
:104F4000E64444EA05248D6822F0200242EA051274
:104F50000B4DA8420ED1CD6822F0800242EA051224
:104F60004D6923F4406343EA85038D6922F04002D2
:104F700043EA85034360846149688163026230BD0E
:104F8000002C014030B5026A22F480720262036A8A
:104F90004268C46923F4007324F073050C682C4341
:104FA0008D6843EA05230C4DA8420ED1CD6823F449
:104FB000006343EA05234D6922F4405242EA051298
:104FC0008D6923F4806342EA05124260C461496836
:104FD000C163036230BD0000002C014030B5026A9D
:104FE00022F480520262046A4268C3690D6823F4A5
:104FF000E64343EA05238D6824F4005444EA05346B
:10500000064DA84204D14D6922F4804242EA85123D
:105010004260C36149680164046230BD002C0140F4
:1050200010B5036A046A24F001040462846924F060
:10503000F00444EA021423F00A020A438461026283
:1050400010BD10B5036A23F0100303628369046A7C
:1050500023F4704343EA023224F0A00343EA01112F
:105060008261016210BD00002C4910B509686FF023
:1050700001000861FBF754FF0120FBF7FDFE68B15A
:10508000FFF73CFA20B10020FFF79CFA24A003E0D0
:105090000120FFF797FA25A000F0BEFB0120FBF7E7
:1050A000F9FE20B127A000F0B7FBFDF79BFC022022
:1050B000FBF7E2FE20B129A000F0AEFBFFF708FAF3
:1050C0000220FBF7E7FE58B12AA000F0A5FB002064
:1050D000FFF77EFA0020FFF783FA0020FFF764FA5B
:1050E000FFF728FA01460A20FEF704FF2548017859
:1050F000491CC9B201700A290ED30021017008466B
:10510000FFF702FAFFF71CFAFFF7EAF9FFF7F6F9E3
:10511000BDE81040FFF70EBA10BD0000500300209C
:105120004D4F44455F53544F500D0A004D4F444579
:105130005F434F4D4D414E445F504F534954494F8B
:105140004E0D0A0048414C5F4E5649435F537973F8
:1051500074656D52657365740D0A00004D6F746F50
:10516000725F436C6561725374616C6C466C61670D
:105170000D0A00004D6F746F725F53746F700D0AEB
:105180000000000000000020084910B509686FF019
:1051900001000861FCF780FA18B1BDE81040FCF787
:1051A00081BABDE81040FFF727BA0000E0030020F5
:1051B0002DE9F047334D0F460026E96F05F18004D5
:1051C0008F4202D1216888421DD0EF676E67206050
:1051D0002169B046401A4000FBF70CFAA6688246E7
:1051E000B81BFBF707FA8146B819FBF703FA4946E3
:1051F000FBF790F95146FBF7BFF9FBF704FA286774
:1052000085F8008027E0A86F00EB4001C1EBC011DA
:10521000686FB0EBC10F02DB0120287003E0323071
:1052200068672878B8B11748A168C06E002908D00F
:1052300009DDC0F10000FBF78DFFA068002807DD45
:105240000CE066600AE0FBF785FFA068002805DB3C
:105250006660A66002E0286FFBF77CFFD4E90201DC
:10526000014444F6206291FBF2F325692B4491FB43
:10527000F2F502FB1511C4E90313C4E90530BDE8DA
:10528000F0870000AC00002002494A681269CA6633
:1052900088677047AC000020044B00225A671A70E0
:1052A0008033C3E90121C3E903207047AC0000202B
:1052B00010B5406A0021C185C184FEF77FFB10BD97
:1052C00070B5446A2068406994F83D10C0F3C0107E
:1052D0000025212904D118B1E584204600F083F887
:1052E0002068406994F83E10C0F38010222904D150
:1052F00018B1E585204600F05EF8206C40F0100003
:1053000020642046FEF75AFB70BD10B50146406A86
:105310000968096889061BD40021C1850168CA682B
:1053200022F48072CA6001684A6922F001024A616F
:1053300001684A6922F040024A61202180F83E104B
:10534000016B012904D10168CA6822F01002CA6009
:10535000016B012902D0FEF7F8FC10BD818DFEF72C
:1053600000FB10BD10B5406A016B012902D0FEF7A9
:10537000EDFC10BD818D4908FEF7F3FA10BD10B5A4
:105380000146406A0968096889060CD40021C18475
:1053900001684A6922F080024A610068C16841F0F0
:1053A0004001C16010BDFEF76DFD10BD10B5406A33
:1053B000FEF76EFD10BD0168CA6822F49072CA60E3
:1053C00001684A6922F001024A61016B012904D196
:1053D0000168CA6822F01002CA60202180F83E10DD
:1053E0000021016370470168CA6822F0C002CA60E8
:1053F000202180F83D10704708B590F83E10222912
:1054000001D0022008BD82684FF480539A4201D136
:10541000016921B1816A9A421BD04AB10AE002684F
:10542000816A5268C2F308020A80816A891C08E016
:10543000026972B10268526802F07F020A70816AE2
:10544000491C8162C18D491E0904090CC18503D024
:1054500019E002685268F1E70168CA6822F0200288
:10546000CA600168CA6822F48072CA6001684A6929
:1054700022F001024A61202180F83E10016B0129CF
:1054800003D0FEF762FC002008BD00210163016823
:10549000CA6822F01002CA6001680A68D20602D502
:1054A0000A6849680091818DFEF75BFAEBE700001E
:1054B00070B5044600680169E26821F44051114367
:1054C00001612169A0680843616908432168CA68CD
:1054D00041F20C639A430243CA6020684169A269A1
:1054E00021F44071114341611E492068884202D174
:1054F000FDF7A6FB01E0FDF793FB00EBC00101EB1C
:105500000012606864218000B2FBF0F3B3FBF1F39A
:105510006FF018067343B2FBF0F5B2FBF0F605EB43
:105520008305322303EB0515B5FBF1F5B6FBF1F668
:1055300005F0F00505EB0615B2FBF0F6B2FBF0F056
:10554000B0FBF1F06FF01802504306EB800003EB64
:105550000010B0FBF1F0216800F00F0028448860D3
:1055600070BD00000038014038B581628285002599
:10557000134604460564222084F83E00A26B1348BB
:105580009062A26B1248D062A26B12481063A06BAB
:105590000A4645632168A06B091DFCF78FFF206850
:1055A00001684168009184F83C50C16841F4807101
:1055B000C1602068416941F0010141612068416991
:1055C00041F040014161002038BD00000B5300084C
:1055D00065530008C15200082DE9F041984617466E
:1055E0000E460446069D1DE0681C1BD02DB1FDF73C
:1055F0005BF9A0EB0800A84214D92068C16821F427
:10560000D071C1602068416921F001014161202011
:1056100084F83D0084F83E00002084F83C0003201C
:10562000BDE8F0812068006836EA000004D0002060
:10563000B842D9D00020F3E70120F9E738B5154882
:1056400000680168C943C9061FD401680025406885
:1056500000901048FEF786F90F48006840680F4C2C
:10566000404220700E48026822B1207810B12178A3
:105670000C48904721780B48FAF76DFD25704FF4E0
:10568000807208490348FEF74BFBBDE838400148EB
:10569000FEF796B928050020B00500200400002080
:1056A0000C000020280400200148FCF7C6BB0000C5
:1056B000D00200200148FCF7C0BB0000D00200204F
:1056C00010B594B000292AD00278334C732A59D0EF
:1056D00006DC632A0ED06C2A5BD0702A04D139E034
:1056E000762A21D07A2A51D02CA1684600F0F4F80D
:1056F000684616E010AA31A1FAF740FD01282FDB19
:10570000FEF7FCFE032802D00320FEF75BFF2D49C5
:105710001098FAF7FFFEFAF776FFFEF745FF14B090
:1057200010BD00F079F8FAE712AA27A1FAF726FDD2
:10573000012815DBFEF7E2FE022802D00220FEF768
:1057400041FF21461298FAF7E5FEFAF75CFFFEF7F3
:1057500047FFE4E711AA1EA1FAF710FD012801DABC
:105760001DA0DEE7FEF7CAFE012802D00120FEF7E9
:1057700029FF21461198FAF7CDFEFAF744FFFEF70C
:1057800027FFCCE70020FEF71DFFC8E7FFF78AF8E8
:10579000C5E7FEF79DFEC2E7000048475B657272F1
:1057A0006F725D20556E6B6E6F776E20636F6D6DDF
:1057B000616E643A2025630D0A00000063202566AF
:1057C0000000000000007A447620256600000000FA
:1057D00070202566000000005B6572726F725D20AC
:1057E000436F6D6D616E6420666F726D61742065CC
:1057F00072726F72210D0A00054A1378002BFCD0DB
:10580000002313700A4601460248FEF7FBBA000067
:10581000080000202805002010B50446FAF7A6FC71
:1058200081B22046BDE81040FFF7E6BFFEE700006A
:1058300070B5184C06460025216A421A2046002AF7
:10584000806908D00FDD002907DBFBF797FC206A91
:10585000B04212DA1BE0266219E0FBF78FFC206AE7
:10586000002812DA13E00B4880694042002907DC67
:10587000FBF784FC206AB04209DCC4E9075606E065
:10588000FBF77CFC206A002801DCE5612562206AC8
:10589000606270BDAC000020024841680969816106
:1058A00070470000AC00002002490022C1E9072037
:1058B00070470000AC0000200FB4054B10B503A9E1
:1058C000044A029800F042F810BC5DF814FB000096
:1058D000855B0008A00100200FB4084B10B504A997
:1058E00002AA039800F032F8044602A9002000F052
:1058F00043F9204610BC5DF814FB0000795B0008FA
:105900000907090E002804DB00F1E02080F80014EC
:10591000704700F00F0000F1E02080F8141D704780
:1059200002E008C8121F08C1002AFAD17047704768
:10593000002001E001C1121F002AFBD1704730385E
:105940000A2801D201207047002070472DE9FF4F3F
:105950008BB09A460F460446002606E025280BD059
:1059600052460D999047641C761C20780028F5D18A
:105970000FB03046BDE8F08F0025A94601227D49D1
:1059800000E0054314F8013F203B02FA03F008420F
:10599000F7D120782E2817D114F8010F45F004050F
:1059A0002A280ED06FF02F022078A0F130010929AB
:1059B0000AD809EB890102EB410100EB0109641CE3
:1059C000F2E757F8049B641C20786C280DD004DCA7
:1059D0004C2812D06A2811D104E074280DD07A28FE
:1059E0000CD10AE045F4001507E0617845F4801514
:1059F000814202D1641C05F58015641C2078692859
:105A00003ED006DC0028B3D063280BD0642804D134
:105A100036E0732810D075285CD052460D99904717
:105A2000761CA5E017F8040B8DF8000000208DF817
:105A30000100E846012003E057F8048B4FF0FF30E7
:105A400069074FF0000501D40AE06D1C4D450DDAE1
:105A50008542FADB18F805100029F6D106E06D1C26
:105A60008542FCDB18F805100029F8D12E4404E02B
:105A700018F8010B52460D9990476D1EF8D277E049
:105A800000200A90C5F302504FF00A0B02280CD0F8
:105A900001CFC117021E71F100020CDA0023D0EB16
:105AA000030063EB01012D2208E0FF1D27F007072B
:105AB000F7E80201EEE72A0504D52B228DF8242011
:105AC000012203E0EA070FD02022F7E70DF12008BA
:105AD000089218E000200A90C5F302504FF00A0B1C
